:020000040000FA
:10000000700D00104D010000550100005701000067
:1000100000000000000000000000000000000000E0
:100020000000000000000000000000005901000076
:1000300000000000000000005B01000059280000E3
:100040005F0100005F0100005F0100005F01000030
:100050005F0100005F0100005F0100005F01000020
:100060005F0100005F0100005F0100005F01000010
:100070005F0100005F0100005F0100005F01000000
:10008000935800000F4F00000F380000C72A0000EF
:100090005F010000F13200005F0100005F0100001D
:1000A0005F0100005F0100005F0100005F010000D0
:1000B0006B2F0000472F0000192F0000192E0000A1
:1000C00000F002F800F032F80CA030C8083824180C
:1000D0002D18A246671EAB4654465D46AC4201D180
:1000E00000F024F87E460F3E0FCCB6460126334280
:1000F00000D0FB1AA246AB4633431847D46A00002F
:10010000F46A00000023002400250026103A01D3E1
:1001100078C1FBD8520700D330C100D50B607047BF
:100120001FB5C046C0461FBD10B510BD00F0C7F8D2
:100130001146FFF7F5FF00F081FE06F0EEFB03B479
:10014000FFF7F2FF03BC06F0F3FB0000074880470F
:1001500007480047FEE7FEE7FEE7FEE7FEE7FEE7AB
:1001600004480549034A054B70470000130200008C
:10017000C1000000700B0010700D0010700B00101B
:100180003249334A11600121324A11605160002125
:1001900051600121516000BF2E494968C907C90F4C
:1001A0000029F9D02B4940398868400A40022021B3
:1001B000014303221143274A403A91602649896B43
:1001C00080229143244A916300BF22494039C96883
:1001D000C907C90F0029F8D003211E4A1163012164
:1001E0005163002151630121516300BF1949496BDB
:1001F000C907C90F0029F9D00121164A9163144992
:1002000009688900154A116011460968144A11608D
:10021000704700B500200F49403908620E48806BD6
:10022000202188430C498863002300E05B1CFF2BDE
:10023000FCD9FFF7A5FF07484030006801210904F9
:10024000084304494031086000BD0000001BB700AE
:1002500000000010408004400082044004000010B0
:10026000080000100F4800680121C90308430D4928
:10027000086000200C4908601920012181400B4AC8
:10028000116000BF0A480B49486003200860AA209B
:100290008860552088607047AA20064988605520EC
:1002A00088607047808004406401001000E100E035
:1002B0000090D0030040004070477047704775467B
:1002C00006F032FBAE46050069465346C008C00042
:1002D000854618B020B5FFF743FF60BC00274908EA
:1002E000B6460026C0C5C0C5C0C5C0C5C0C5C0C5CE
:1002F000C0C5C0C5403D49008D467047FFFFFFFFA8
:1003000010B5002819DAFE4A03071B0F083B9B08AB
:100310009B00D2588307DC0EFF23A3409A438B0730
:100320001B0E8407E40EA3401A43F54B0407240F69
:10033000083CA408A4001A5118E0F24A03231B0247
:10034000D21883089B00D2588307DC0EFF23A340FA
:100350009A438B071B0E8407E40EA3401A43E94B14
:10036000032424021B198408A4001A5110BDA021E3
:10037000E54A5162E449C03108610121E24AC032D4
:100380005161002151610121516100BFDE49C0313D
:100390004969C907C90FF9D00121DB4AC03291610F
:1003A000DA49896B40229143D84A9163704710B56E
:1003B000002202804280002104E000234C00021D44
:1003C0001353491CFF29F8D310BD0C2043E0FF2232
:1003D000411E16235943CE4BC9184A70411E16239D
:1003E0005943CB4BC9188A70411E16235943C84B39
:1003F000C9180A710122411E16235943C44BC9185A
:100400004A82411E16235943C14BC9188A82411E94
:1004100016235943BE4BC9180A720022411E1623E7
:100420005943BB4BC9188A72FF22411E16235943F8
:10043000B74BC918CA720222411E16235943B44B46
:10044000C9180A73FF22411E16235943B04BC9181D
:100450004A73411EC8B20028B9D170477FB5012048
:10046000AC4B0022AC490090072006F051F8012067
:10047000AA4B0022A84908310090072006F048F84E
:1004800000241EE001200090A000A54A811801ABC5
:100490000022072006F03CF8002810D168460079B9
:1004A0008106890E16206043994A8018C1726846F9
:1004B00000798011401C1621614389188873601CE3
:1004C00084B20C2CDEDB0C2001AB0022954900909D
:1004D000072006F01DF800280CD1002408E001A830
:1004E000015D162060438A4A80180173601C84B243
:1004F0000C2CF4DB0C2001AB00228A49C0310090A7
:10050000072006F005F800280CD1002408E001A817
:10051000015D162060437E4A80184173601C84B2DE
:100520000C2CF4DB0C2001AB00227F49009007204B
:1005300005F0EEFF00280CD1002408E001A8015DC1
:1005400016206043724A80188171601C84B20C2CA2
:10055000F4DB0C2001AB00227349C031009007206E
:1005600005F0D6FF00280FD100240BE001A8005DA4
:10057000C043401CC1B216206043654A8018017216
:10058000601C84B20C2CF1DB0C2001AB002267490B
:100590000090072005F0BCFF00280CD1002408E0E3
:1005A00001A8015D16206043594A80188172601CC1
:1005B00084B20C2CF4DB182001AB00225C490090C3
:1005C000072005F0A5FF00281FD100241BE0E2173B
:1005D000520F1219D21001AB9A5C2046E3175B0F41
:1005E0001B18DB10DB00E31A1A41D207D20F1623C7
:1005F0006343474E9B195B791A43162363439B1948
:100600005A71601C84B20C2CE1DB182001AB002273
:10061000474918390090072005F07AFF00281FD1BC
:1006200000241BE0E217520F1219D21001AB9A5CA2
:100630002046E3175B0F1B18DB10DB00E31A1A419F
:10064000D207920F16236343314E9B195B791A43ED
:10065000162363439B195A71601C84B20C2CE1DB96
:10066000012524E00C2000906843304AC0328118F4
:1006700001AB0022072005F04BFF002815D1002414
:1006800011E0E217920F1219921001AB9B5CE21776
:10069000920F121992105219162672431C4E92197B
:1006A0005372201D84B20C2CEBDB681CC5B2042DE8
:1006B000D8DB01201F4B002206210090072005F007
:1006C00027FF7FBD08B500220621104602F0D2FDAB
:1006D00001200346002206210090104602F06DFC26
:1006E0000621002002F048FD00220421022002F031
:1006F000C1FD0120034600220421009002201BE0DE
:100700001CED00E000E100E00080044000820440B5
:100710005209001018000010190F000019000010F5
:100720002966000029690000A96A0000696E0000BE
:10073000417200000C00001002F03FFC0421022076
:1007400002F01AFD00220321104602F093FD012061
:100750000346002203210090104602F02EFC0321E4
:10076000002002F009FD08BD10B50446FE480069EE
:1007700003210843FC4908617D210901FB48006809
:1007800006F01EF86043401EF74948614817C2064C
:10079000D20E01219140F64A116000BF0121FFF7FE
:1007A000AFFD10BD08B506200090F24800790002A8
:1007B000F04A527910430146EE4B5B1C00220720A1
:1007C00005F0A6FEFC20EB4908700721E94803F07C
:1007D00007FAE849C8710821E64802F08AFE08BD18
:1007E00008B50620E34B5B1C00220090E24801881C
:1007F000072005F03AFE0620DE4B08330022009069
:10080000DD480188072005F083FEDB480088801D55
:10081000DA49884222DCFA20D6490870EC20487078
:10082000D74800788870DC20C870D3480088001250
:100830000871D14800884871002088710721CD488F
:1008400003F0CEF9CB49C8710821CA4802F051FE25
:10085000C9480088801DC849088002E00020C949B5
:10086000087008BD08B502F09BFB0022022103209E
:1008700002F000FD01200346002202210090032027
:1008800002F09BFB0221032002F076FC08BD10B5AC
:100890001020BD4988628863C863BB484030406807
:1008A000C008C000B8494031486010208860086125
:1008B00001221146022002F0DDFC0122092110462E
:1008C00002F0D8FC01220421032002F0D3FC012213
:1008D0000521022002F0CEFC01220521032002F0B6
:1008E000C9FC01220721002002F0C4FC01221146AC
:1008F000022002F0B4FC01220921104602F0AFFCF4
:1009000001220421032002F0AAFC01220521022079
:1009100002F0A5FC01220521032002F0A0FC012227
:100920000721002002F09BFC10BD08B5FFF771FC09
:100930009648006896490843944908604B20C001D6
:1009400002F072FD012005F05FFBFFF73EFD002085
:1009500090490870FFF782FDFFF784FFFFF797FFCC
:1009600001221146032002F085FC012203210846E2
:1009700002F080FC844880308068C008C000824952
:10098000803188600846C06AC008C000C862012281
:100990000321084602F063FC7F49012002F0D9F8E8
:1009A00001211220FFF7ACFC02211320FFF7A8FC65
:1009B000012002F0A9F801206E4B002201460090B0
:1009C000072005F0A5FD002803D16A4800786C498E
:1009D0000870FA2067490870EC2048706848007871
:1009E0008870FE20C87001200871042048718020A2
:1009F000887107215F4803F0F3F85E49C871082148
:100A00005C4802F076FDFFF75DFE1020FFF7AFFCBB
:100A1000FFF728FC08BD1FB50C2000905F48007848
:100A2000C01C0C2250435E4A811801AB00220720F3
:100A300005F06EFD002818D1002414E001A8015D26
:100A400016206043574A8018C17016206043114633
:100A50004018C078FF2804D1002116206043801878
:100A6000C170601CC4B20C2CE8DB1FBD1FB5002494
:100A700008E0162060434B494018C07801A908558A
:100A8000601CC4B20C2CF4DBC020009043480078FA
:100A9000C01C0C225043424A811801AB002207209F
:100AA00005F0E3FC1FBD10B586B0022005AB0022A7
:100AB0003B4912390090072005F02AFD00283FD15C
:100AC0006846407DFF283CD10C2002AB002236490D
:100AD0000090072005F01CFD00280CD1002408E040
:100AE00002A8015D162060432E4A8018C171601C67
:100AF000C4B20C2CF4DB0C20009028480078801C39
:100B00000C225043264A811802AB0022072005F030
:100B1000FFFC0028D3D1002410E002A8015D1620BC
:100B20006043204A801841706846007D3221484366
:100B30001621614389188882601CC4B20C2CECDB3E
:100B4000A0E06846407D802848D1C020009013482E
:100B50000078401CC0225043114A811802AB002289
:100B6000072005F0D5FC21E000E000E004000010C3
:100B700000E100E0D408001028000010FF7F000012
:100B800026000010A40100100040044080800440B2
:100B9000C0070100A0010010006CDC020C00001076
:100BA000290F000052090010296C0000002869D0AC
:100BB000002410E002A8015D16206043A54A8018B9
:100BC00041706846007D32214843162161438918EF
:100BD0008882601CC4B20C2CECDB53E06846407D7C
:100BE000812826D16846007D9B4908700C20009022
:100BF0009A480078801C0C225043994A811802AB15
:100C00000022072005F084FC00283BD000240DE0E2
:100C100002A8015D162060438E4A801841700221AF
:100C20001620604380188182601CC4B20C2CEFDB5C
:100C300028E06846407D89490978884222DA0C20FC
:100C400000906846407D0C225043854A811802ABD3
:100C50000022072005F05CFC002411E002A9601CC2
:100C6000095C162060437B4A801841706846007D0D
:100C7000322148431621614389188882601CC4B21E
:100C80000C2CEBDBFFF7C7FE06B010BD10B57548A6
:100C9000007801281DDD01221146022002F0DFFA52
:100CA00001220921104602F0DAFA01220421032070
:100CB00002F0D5FA01220521022002F0D0FA012229
:100CC0000521032002F0CBFA01220721002002F0C7
:100CD000C6FA6548C06B2021084218D06348C06B33
:100CE0000221084213D06048C06B102108420ED088
:100CF0005E48C06B2021084209D05D48C06B80214E
:100D0000084204D05B48C06B8900084202D1012030
:100D10005449087010BD10B5002100200FE01622C4
:100D200042434C4BD2189278D34316224243494C4B
:100D300012195278D2439A185118421CD0B2402846
:100D4000EDDB4D4A91420CD14C4A127802231A40F5
:100D5000022A11D1444AD26B20239A43424BDA63D0
:100D60000AE0464A127802231A4205D13F4AD26B62
:100D700020239A433D4BDA63002140200FE01622E6
:100D80004243344BD2189278D34316224243314C1B
:100D900012195278D2439A185118421CD0B28028A6
:100DA000EDDB354A91420CD1344A127804231A40C3
:100DB000042A11D12D4AD26B02239A432B4BDA63BA
:100DC0000AE02E4A127804231A4205D1284AD26B2F
:100DD00080239A43264BDA63002180200FE01622FD
:100DE00042431C4BD2189278D34316224243194CEB
:100DF00012195278D2439A185118421CD0B2C02806
:100E0000EDDB1D4A91420CD11C4A127808231A408E
:100E1000082A11D1144AD26B10239A43124BDA6379
:100E20000AE0164A127808231A4205D1114AD26BF9
:100E30009B019A430F4BDA63002110BD10B5FFF7F9
:100E400074FDFFF730FE01F00BFD03F006FC0020FF
:100E500010BD0000520900100E0000100C00001020
:100E6000290F000025000010C03F0350C03F025072
:100E7000C03F0050C03F01500080FFFFC201001082
:100E80000146F7488078FF2826D0F548827816205A
:100E90004843F44BC018407B824205D1F04880782B
:100EA00080221040802817D0ED48807880221040A2
:100EB000802813D016204843EA4A8018407B8022BD
:100EC000104080280AD0E648807816224A43E54B35
:100ED000D218527B104201D0012070470020FCE75D
:100EE000014616204843DF4A8018007BDC4A5278CE
:100EF000904203D0DA484078002801D101207047A1
:100F00000020FCE7F7B582B005460E46002D04D060
:100F1000002E02D00498002801D105B0F0BD0024B5
:100F200014E02046FFF7DCFF00280DD02046FFF735
:100F3000A7FF002808D0297916206043C94A8018E5
:100F4000C0780818287103E0601CC4B20C2CE8DBE0
:100F500000BF28795F2800DDDFE70C2000902879AA
:100F60000C225043C04A811833460022072005F066
:100F7000CFFA002800D0D0E7A879000269790843A9
:100F8000871CBA48874200D90746002456E0305DE6
:100F900000284BD02046FFF7A3FF002846D020466C
:100FA000FFF76EFF002841D016206043AD4940187E
:100FB000807800283AD01620604340188078315D50
:100FC000884233D016206043A6494018808A012801
:100FD00018D0162060434018817816206043A14A3B
:100FE000801840780818162161438918897C484385
:100FF000162161438918097D4843C1B21620604318
:1010000080188170315D16206043964A80184170C7
:101010001620604380188782297916206043801843
:10102000C17101211620604380184182162060435F
:101030008C49401840783055601CC4B20C2CA6DB9B
:101040000C2000908A480078801C0C225043864A6D
:10105000811833460022072005F007FA002407E034
:10106000162060437F494018C0793055601CC4B2D7
:101070000C2CF5DB0C20334600227E490090072023
:1010800005F0F3F900BF48E7FEB505460F4600241A
:1010900014E02046FFF724FF00280DD02046FFF77C
:1010A000EFFE002808D02979162060436D4A801889
:1010B000C0780818287103E0601CC4B20C2CE8DB6F
:1010C00000BF28795F2800DDFEBD0024C4E0204673
:1010D000FFF706FF00284AD02046FFF7D1FE002880
:1010E00044D0162060435F49401880780028F7D02C
:1010F0001620604340188078FF28F1D0A8790002BC
:1011000069790843861C5948864200D9064616204C
:10111000604354494018808A012818D01620604343
:1011200040188178162060434E4A8018407808188D
:10113000162161438918897C484316216143891827
:10114000097D4843C1B21620604380188170FF2199
:1011500016206043434A801841701620604380186F
:1011600086820121162060438018418272E06978EE
:10117000162060433B4A8018407A81426ADB6978D6
:10118000162060438018407A1830814262DC1620B5
:10119000604311464018407AFF285BD0042000903D
:1011A000A000354A811801AB0022072005F0B0F9F4
:1011B00000284FD1684640790104684680790002D2
:1011C00008436946C97906460E436978162060438C
:1011D000244A8018407A081A1821091A3046C84053
:1011E000012837D1A879000269790843861C1F4875
:1011F000864200D90646162060431A494018808A64
:10120000012818D0162060434018817816206043CA
:10121000144A801840780818162161438918897C7F
:101220004843162161438918097D4843C1B21620FD
:10123000604380188170FF2116206043094A80189E
:101240004170162060438018868201211620604379
:1012500080184182601CC4B20C2C0FDA37E7000002
:10126000D408001052090010290F0000FFFF0000F1
:101270000C000010296C0000296F000000BF23E75C
:10128000F8B505460E4617460C20009028790C222A
:101290005043FE4A811833460022072005F038F9F2
:1012A000002815D1002411E02046FFF719FE002880
:1012B0000AD02046FFF7E4FD002805D01620604341
:1012C000F349401840783055601CC4B20C2CEBDB5D
:1012D0000C20009028790C225043EC4A81183346A8
:1012E0000022072005F0C1F8F8BDF8B505460E4606
:1012F000A879000269790843871CE648874200D92B
:1013000007460C200090E4480078801C0C225043D3
:10131000DE4A811833460022072005F0F9F800283C
:101320003ED100243AE02046FFF7DAFD002833D012
:101330002046FFF7A5FD00282ED016206043D44993
:101340004018808A012818D0162060434018817800
:1013500016206043CE4A8018407808181621614351
:101360008918897C4843162161438918097D4843BF
:10137000C1B21620604380188170315D1620604331
:10138000C34A80184170162060438018878201216B
:101390001620604380184182601CC4B20C2CC2DB52
:1013A000F8BDF8B507460D460C200090BA48007805
:1013B000401C0C225043B54A81182B4600220720BE
:1013C00005F0A6F800283ED100243AE02046FFF7B9
:1013D00087FD002833D02046FFF752FD00282ED08D
:1013E00016206043AA494018808A012818D0162088
:1013F00060434018817816206043A54A80184078E1
:101400000818162161438918897C484316216143D5
:101410008918097D4843C1B2162060438018817045
:10142000295D162060439A4A801841701620604357
:101430008018868201211620604380184182601C3A
:10144000C4B20C2CC2DBF8BDF8B505460E46A8792F
:10145000000269790843871C8E48874200D90746F5
:101460000C2000908C480078801C0C225043874A46
:10147000811833460022072005F04AF800283ED1A3
:1014800000243AE02046FFF72BFD002833D0204609
:10149000FFF7F6FC00282ED0162060437C49401848
:1014A000808A012818D016206043401881781620C1
:1014B0006043774A801840780818162161438918DC
:1014C000897C4843162161438918097D4843C1B28C
:1014D0001620604380188170315D162060436C4A8D
:1014E00080184170162060438018878201211620E1
:1014F000604380184182601CC4B20C2CC2DBF8BD72
:10150000F8B506460F46154630202B4600226349A3
:101510000090072004F0FCFF002834D1002428E0CC
:101520002046FFF7DDFC002814D02046FFF7A8FC7A
:1015300000281CD07078A1006854B179A000401C2C
:1015400029547179A000801C29543179A000C01C55
:1015500029540CE0FF20A10068540021A000401C89
:101560002954A000801C2954A000C01C2954601CD0
:10157000C4B20C2CD4DB30202B460022474900900B
:10158000072004F072FFF8BDF8B506460F46144672
:1015900000250EE0FF20A90060540021A800401C97
:1015A0002154A800801C2154A800C01C2154681C90
:1015B000C5B20C2DEEDB30202346002237490090C7
:1015C000072004F052FFF8BDF8B505460E46174651
:1015D000002412E02046FFF783FC00280BD02046B1
:1015E000FFF74EFC002806D016206043284940181B
:1015F000C079287103E0601CC4B20C2CEADB00BF88
:101600000C20009028790C225043204A8118334640
:101610000022072004F07CFF002815D1002411E0EF
:101620002046FFF75DFC00280AD02046FFF728FC83
:10163000002805D0162060431549401840783055E1
:10164000601CC4B20C2CEBDB0C20009028790C221F
:1016500050430E4A811833460022072004F005FF4C
:10166000F8BDF8B507460D460C2000900A480078F2
:101670000C225043054A81182B460022072004F013
:1016800047FF002849D1002445E00000290F000051
:1016900052090010FFFF00000C000010296F00002D
:1016A0002046FFF71DFC002833D02046FFF7E8FB5B
:1016B00000282ED016206043F7494018808A012860
:1016C00018D0162060434018817816206043F24AF3
:1016D000801840780818162161438918897C48438E
:1016E000162161438918097D4843C1B21620604321
:1016F00080188170295D16206043E74A8018417088
:1017000016206043801886820121162060438018CD
:101710004182601CC4B20C2CC2DBF8BDF0B585B0B0
:10172000044600258AE02846FFF7DAFB00287DD032
:1017300016206843D84940188079617988427BD166
:101740000020002878D0E420E07016206843D249B9
:101750004018807B8007800F012804D002280DD01C
:10176000032821D115E0CD4FCD4ECE480290CE4872
:101770000390CE480190CE48009017E0CD4FCE4860
:101780000290CE4ECE480390CE480190CE480090B5
:101790000CE0CE4FCE480290CE4ECF480390CF48BB
:1017A0000190CF48009001E005B0F0BD00BF00E01F
:1017B00000BF38780028FBD1617916225143B64A20
:1017C0008918C97A4902FF31A13188B20199884745
:1017D00000E000BF38780028FBD10298007800288C
:1017E0000DD00098804703980078022805D1307802
:1017F000BC49085CC043207101E030782071217938
:1018000016206843A44A8018417021791620684345
:101810008018817016206843114640184078A071E6
:101820000721204602F0DCF9E07100E004E0082125
:10183000204601F05EFE04E0681CC5B20C2D00DA03
:1018400071E700BF00BFAFE7F8B505460E46174683
:1018500000242CE02046FFF743FB002825D020463B
:10186000FFF70EFB002820D0162060438A4940185D
:101870008079002819D11620604340184079C007AC
:10188000C00F12D1E220E870162060434018C079E2
:1018900068710020A8710721284602F0A1F9E871BB
:1018A0000821284601F025FE03E0601CC4B20C2C80
:1018B000D0DB00BFF8BDF8B505460F46287981009A
:1018C0004018861C8848864200D906466879FF2859
:1018D0006ED1002469E02046FFF702FB002862D0A9
:1018E0002046FFF7CDFA00285DD0162060436A49F4
:1018F000401840794106490E16206043664A801818
:1019000041711620604311464018808A012817D083
:101910001620604340188178162060438018407874
:101920000818162161438918897C484316216143B0
:101930008918097D4843C1B2162060438018817020
:10194000A97916206043544A8018807881422ADDA4
:10195000A9791620604380184170162161438918C7
:101960004A78162161434C4BC9188978511A714342
:101970000846FE2104F024FF81B216206043464A47
:101980008018818201211620604380184182162030
:10199000604311464018808A022804DA022116208A
:1019A000604380188182601CC4B20C2C93DBA3E0DE
:1019B00000249DE02046FFF793FA00286BD02046D4
:1019C000FFF75EFA002866D01620604332494018BF
:1019D0008079697988425ED1162060432E4940188B
:1019E00040794106490E162060432B4A8018417108
:1019F0001620604311464018808A012817D016200F
:101A00006043401881781620604380184078081899
:101A1000162161438918897C48431621614389183E
:101A2000097D4843C1B21620604380188170A979AE
:101A300016206043184A8018807881422ADDA979EF
:101A400016206043801841701621614389184A7836
:101A500016216143104BC9188978511A7143084601
:101A6000FE2104F0ADFE81B2162060430A4A8018C0
:101A70008182012116206043801841821620604334
:101A800011464018808A022804DA02211620604399
:101A9000801881822FE029E052090010B201001065
:101AA000B0010010B3010010B1010010A137000017
:101AB00045370000E6010010E7010010E4010010C6
:101AC000E5010010715700004F580000D2010010CE
:101AD000D3010010D0010010D1010010ED4D000025
:101AE000CB4E0000D06A0000FFFF0000601CC4B2B3
:101AF0000C2C00DA5EE700BFF8BDF8B505460F46CE
:101B0000287981004018861CFE48864200D9064686
:101B100000246DE02046FFF7E3F9002866D0204658
:101B2000FFF7AEF9002861D06879FF2807D01620AA
:101B30006043F549401880796979884256D116206A
:101B40006043F1494018808A012818D0162060436C
:101B50004018817816206043EB4A801840780818B6
:101B6000162161438918897C4843162161438918ED
:101B7000097D4843C1B21620604380188170162049
:101B80006043E149401840798021084316216143B0
:101B9000DD4A89184871A979162060438018417080
:101BA0000121162060438018418216216143891863
:101BB0008A7816216143D44BC9184978511A714368
:101BC0000846FE2104F0FCFD81B216206043CE4A97
:101BD000801881821620604311464018808A0228AE
:101BE00004DA02211620604380188182601CC4B28E
:101BF0000C2C8FDBF8BDF8B505460E46002459E0E5
:101C00002046FFF76DF9002852D02046FFF738F93B
:101C100000284DD016206043BB494018807969796F
:101C2000884202D06879FF2842D116226243B64B1F
:101C3000D218527816236343B34FDB199B78D21A1C
:101C400016236343DB195B8A5B1C5A43104616223A
:101C500062433B46D218918A04F0BCFD16216143D1
:101C60003A46891889784018C1B216206043801816
:101C7000817016206043114640188078002804D1F6
:101C800001211620604380188170162060439E4910
:101C900040188178162060439B4A801841700121CA
:101CA000162060438018418216206043801881828C
:101CB000601CC4B20C2CA3DBF8BDF0B505460E4683
:101CC0001746002449E02046FFF70AF9002842D0D1
:101CD0002046FFF7D5F800283DD0162060438A49FA
:101CE000401880796979884202D06879FF2832D11A
:101CF0001620604384494018808A012818D0162095
:101D0000604340188178162060437F4A80184078ED
:101D10000818162161438918897C484316216143BC
:101D20008918097D4843C1B216206043801881702C
:101D3000A97916206043744A80184170287981007F
:101D40004018801C162161438918888201211620C1
:101D5000604380184182601CC4B20C2CB3DBF0BD20
:101D6000F0B505460F4600244AE02046FFF7B8F8D4
:101D7000002843D02046FFF783F800283ED01620E5
:101D800060436149401880796979884202D0687956
:101D9000FF2833D1162060435B494018808A012810
:101DA00018D0162060434018817816206043564AA8
:101DB000801840780818162161438918897C4843A7
:101DC000162161438918097D4843C1B2162060433A
:101DD00080188170287932214843861CA979162001
:101DE0006043494A80184170B01C1621614389182C
:101DF000888201211620604380184182601CC4B291
:101E00000C2CB2DBF0BDF0B505460F4628793F49F2
:101E10004843861C3B48864200D90646002445E0DC
:101E20002046FFF75DF800283ED02046FFF728F84F
:101E3000002839D0162060433349401880796979E9
:101E4000884202D06879FF282ED1162060432E499F
:101E50004018808A012818D01620604340188178E5
:101E600016206043284A80184078081816216143DC
:101E70008918897C4843162161438918097D4843A4
:101E8000C1B21620604380188170A9791620604382
:101E90001D4A8018417016206043801886820121F7
:101EA0001620604380184182601CC4B20C2CB7DB42
:101EB000F0BDF8B504460E461746002530E028462A
:101EC000FFF70EF8002829D0A078FF2819D0A178B4
:101ED000162068430C4A8018407B814204D1A078C8
:101EE0008021084080280CD0A078802108408028DC
:101EF00014D0A07816216943034A8918497B084306
:101F00000CD005E0FFFF000052090010B80B0000E4
:101F1000617916206843F84A8018C170681CC5B200
:101F20000C2DCCDBFEF7A2FDF8BD70B504460D46C6
:101F3000164600236CE01846FEF7D2FF002865D055
:101F4000A078FF2819D0A17816205843EA4A8018B3
:101F5000407B814204D1A0788021084080280CD0A9
:101F6000A07880210840802850D0A07816215943BD
:101F7000E14A8918497B084348D016205843DE4976
:101F8000401880796179884202D06079FF283DD17C
:101F900016205843D8494018808A012818D01620A6
:101FA00058434018817816205843D34A8018407807
:101FB0000818162159438918897C4843162159432A
:101FC0008918097D4843C1B2162058438018817092
:101FD00016205843C8494018407801280AD01620D6
:101FE000584340184078401EC1B216205843C24A98
:101FF000801841702079801C16215943BE4A8918E7
:10200000888201211620584380184182581CC3B28F
:102010000C2B90DB70BDF0B505460E46174600242C
:1020200054E02046FEF75CFF00284DD02046FEF726
:1020300027FF002848D016206043AF494018807918
:102040006979884202D06879FF283DD11620604323
:10205000A9494018808A012818D0162060434018EA
:10206000817816206043A44A801840780818162109
:1020700061438918897C4843162161438918097D89
:102080004843C1B216206043801881701620604317
:10209000994940184078FF280AD01620604340181C
:1020A0004078401CC1B216206043934A80184170AA
:1020B0002879801C162161438F4A89188882012162
:1020C0001620604380184182601CC4B20C2CA8DB2F
:1020D000F0BDF8B505460E462879082802D0092833
:1020E0007BD17BE08548C06B202188438349C8634E
:1020F0008348C06B802188438149C8638148C06B95
:102100000121490288437F49C863142001F04EFA37
:1021100001221146022001F0A2F8012209211046F5
:1021200001F09DF801220421032001F098F801221A
:102130000521022001F093F801220521032001F07E
:102140008EF801220721002001F089F86E4801F085
:1021500027FB6D4803F00CFB6B4802F047FE00BF05
:102160006A4800780028FBD1FF20F53001F01EFA04
:1021700007240DE06648C06B022148406449C863EB
:10218000FEF78AF8FF20F53001F010FA601EC4B2A5
:10219000002CEFD101F085FF012002F06AF903F075
:1021A00018FD022002F065F903F051F8032002F057
:1021B00060F9FEF753F9FE20E87001202871042031
:1021C00068718020A8710721284601F009FDE87197
:1021D0000821284601F08DF91FE01DE068790128EB
:1021E00017D1002403E0FF203055601CC4B20C2C32
:1021F000F9DB00240BE00C2000906043454A811875
:1022000033460022072004F030F9601CC4B2042CCD
:10221000F1DBFEF723F900E000BF00BFF8BD00BF0F
:102220003D483E49C860BFF3408F00BF00BFFEE796
:1022300038B504460D46FA202070EC20607038480E
:102240000078A070F920E070012000902079000251
:10225000627910430146A31D0022072004F058F9BB
:102260000721204601F0BCFCE0710821204601F066
:1022700040F938BD38B504460D460120009020795C
:102280000002627910430146A31D0022072004F0DA
:10229000ECF8002802D1E079401CE071F920E070F0
:1022A0000821204601F025F938BD70B504460D46D9
:1022B000DE20E070E079401CE0710821204601F04A
:1022C00018F901201749087070BD70B504460D4615
:1022D000DC20E070E079401CE0710821204601F02C
:1022E00008F920790002617908430F49088001202C
:1022F0000C49087070BD000052090010C03F025028
:10230000C03F0050C03F015080FE0000D2010010CD
:10231000C03F0350296600000400FA0500ED00E00C
:1023200026000010A401001028000010FEB504468D
:10233000CA20E070607916214843D3494018807B59
:102340008007800F012804D002280CD003281ED15A
:1023500013E0CE4DCE4ECF480190CF480290CF4FE4
:10236000CF4800901FE0CF4DCF480190CF4ED048CE
:102370000290D04FD048009015E0D04DD048019049
:10238000D04ED1480290D14FD14800900BE00020B0
:10239000A0710721204601F023FCE07108212046AE
:1023A00001F0A7F8FEBD00BF2079012806D0022861
:1023B00025D0032846D004287ED166E000BF2878C7
:1023C0000028FCD1617916225143AF4A8918C97A95
:1023D0004902FF31913188B2B84700BF2878002800
:1023E000FCD1009880473078A0710721204601F089
:1023F000F7FBE0710821204601F07BF86BE000BF9D
:1024000028780028FCD16179162251439E4A891808
:10241000C97A4902FF31923188B2B84700BF2878A3
:102420000028FCD1009880473078C007C00FA07109
:102430000721204601F0D4FBE0710821204601F07D
:1024400058F848E000BF28780028FCD161791622AE
:1024500051438D4A8918C97A4902FF31943188B2B3
:10246000B84700BF28780028FCD100988047307812
:102470008007800FA0710721204601F0B1FBE071B9
:102480000821204601F035F825E000BF2878002813
:10249000FCD16179162251437B4A8918C97A4902D5
:1024A000FF31933188B2B84700BF28780028FCD1AB
:1024B00000988047307800E00CE0C007C00FA071A2
:1024C0000721204601F08CFBE0710821204601F035
:1024D00010F800E000BF00BF00BF63E70279002AE8
:1024E00016DD0279C12A13DAB922C27002791623E5
:1024F0005A43654BD218928A012A07D002791623D3
:102500005A43614BD2185278427101E00022427165
:10251000704730B502460B461179491EC8B21621E4
:102520004143594C0919898A012918D01621414380
:1025300009198C7816214143534D4919497861187E
:10254000162444436419A47C61431624444364194B
:10255000247D6143CCB21621414349198C705179D5
:10256000C943CCB216214143474D49194C7091796A
:10257000891C162444436419A18201241621414375
:1025800049194C8230BD70B504460D4620790028AB
:102590001BD001280DD0022823D160790002A27936
:1025A000104301464B4801F04DFA01204A4908709A
:1025B00018E060790002A27910430146474801F013
:1025C00041FA0120464908700CE060790002A279C6
:1025D00010430146434801F035FA01204249087092
:1025E00000E000BF00BF70BD10B590B03F4800785C
:1025F000F52818D1002411E03C48C078E1003C4A9D
:10260000515C884208D1E0001146401801AA0DA98A
:1026100043683648984705E0601CC4B235480078E6
:102620008442E9DB2DE031480078FA2829D12F488F
:102630004078EC2803D02D484078AA2821D12B4897
:1026400080782D490978884203D028488078552819
:1026500017D1002410E0E0002849085C2349C9781C
:10266000884207D1E000254940180DA942681F485B
:10267000904705E0601CC4B2214800788442EADB40
:1026800000BF10B010BD000052090010B2010010D0
:10269000B0010010B3010010B1010010A13700001B
:1026A00045370000E6010010E7010010E4010010CA
:1026B000E5010010715700004F580000D2010010D2
:1026C000D3010010D0010010D1010010ED4D000029
:1026D000CB4E0000040200105E0100100604001042
:1026E0005F0100100806001060010010D4080010FF
:1026F0002C000010D400001026000010D80000109C
:1027000028010010F0B50C46059D002100BF08E02F
:1027100014204843584F385C002800D103E0481C7F
:10272000C1B20A29F4DB00BF0A2901D1FF20F0BDA4
:10273000002C01D1FF20FAE7142048434E4FC61960
:102740007460B260357000203061F3600846EEE7D7
:1027500001460A2900D3704714224A43464BD01839
:10276000027801231A430270444BC2681B68D218D6
:10277000026100BFEFE70A2800D3704714224243EA
:102780003D4BD1180A78520852000A7000BFF4E796
:102790000A2800D3704714224243374BD118002235
:1027A0000A704A6000BFF5E7344A1268521C334B86
:1027B0001A6000211DE014224A432F4BD0180278E2
:1027C000D207D20F002A12D02C4B02691B689A4202
:1027D0000DD1027804231A430270027802231A40B2
:1027E000002A04D0254BC2681B68D21802614A1C1B
:1027F000D1B20A29DFDB704730B50246002014232E
:1028000053431D4C19191D4C0B692468A34205D96B
:102810001A4D0C69CB682D68641B181B30BD70B550
:10282000002516E014206843134944182078042139
:10283000084000280BD0207802210840022803D04D
:1028400020784008400020706168A0688847681CB4
:10285000C5B20A2DE6DB70BD10B5FFF7A5FF10BDB0
:1028600010B50120FDF780FF0548006901210843EC
:102870000349086110BD00000C0800102C01001075
:1028800000E000E04F490968491C4E4A11604E497A
:102890000968491C4C4A11604C4909784906490E9F
:1028A00004D04B490978491C494A117049490978B3
:1028B000002904D047490978491C464A11707047DD
:1028C0004549C96B08225140434AD163704738B526
:1028D000054642480068002809D00020032302462C
:1028E0003F4900903FA0FFF70DFFC4B207E0414809
:1028F000414908600846006800784049086038BDD2
:1029000038B504460220142300223D4900903DA022
:10291000FFF7F8FE3D49086008460068FF2803D02D
:1029200008460068FFF714FF0220142300223849EC
:10293000009038A0FFF7E6FE3849086008460068B6
:10294000FF2803D008460068FFF702FF0220FF239C
:10295000F53300223249009032A0FFF7D3FE34490C
:10296000086008460068FF2803D008460068FFF7A3
:10297000EFFE38BD10B504462D480068FF2802D18F
:102980000020FFF7BDFF2B480068FFF7E1FE10BDF8
:1029900038B504461D480068FF2803D02548006864
:1029A000FFF7E9FE0020234602462349009023A0BA
:1029B000FFF7A8FE0546FF2D02D02846FFF7C8FE08
:1029C00038BD00001C000010200000101600001090
:1029D0001700001025000010C03F03508C010010AC
:1029E000CF2800003438355F636865636B5F7365BB
:1029F0006E640000F808001098010010008000408C
:102A000085280000545F32306D73000030010010E3
:102A1000636600006B65797363616E0034010010BA
:102A2000C12800004C6564426C696E6B00000000B8
:102A3000380100103C0100107529000044656C61EC
:102A4000795374617274000070B504460D46002C11
:102A50001BD10220E14948600020C8607D21C900E7
:102A6000DF48006803F0ACFE6843DC498861FF2062
:102A70000860042048610120486000BFD7484068D2
:102A8000C007C00F0028F9D11CE0012C1AD1022088
:102A9000D44948600020C8607D21C900D048006842
:102AA00003F08EFE6843CF498861FF200860042050
:102AB00048610120486000BFCA484068C007C00F95
:102AC0000028F9D170BDC7480068C007C00F0028B2
:102AD00019D00120C3490860C3480078401CC2498E
:102AE0000870C2480078012808D1C148006803284E
:102AF00004D90020BD49087000BFFEE7BC4800684B
:102B0000401CBB4908607047002803D10121B34A2B
:102B1000516002E00121B34A51607047002803D19F
:102B20000021AE4A516002E00021AE4A5160704778
:102B30000146002906D1A94A506802221043A74A3B
:102B4000506005E0A74A506802221043A54A506031
:102B5000704770B504460D46002C16D1A548006894
:102B6000012149020843A34908600020A2490860E6
:102B7000A24908609948856100209849886203202D
:102B80004861122000F022F924E0012C22D199485A
:102B90000068A10208439749086099484069C00845
:102BA000C00097494861084640690221084394499A
:102BB000486100209349086093490860894885610D
:102BC000052088498862002088620320486113201C
:102BD00000F0FCF870BD30B505460C46134628469B
:102BE000FFF79CFF012D66D182480068A9020843C7
:102BF00080490860B320C00018437A49C863D807E9
:102C0000C00F00280ED07E484038C06BC008C000FE
:102C10007B494039C8630846C06B032108437849A3
:102C20004039C8630220184000280BD0744800685F
:102C3000C008C000724908600846006803210843C4
:102C40006F4908600420184000280BD06C480069C8
:102C5000C008C0006A4908610846006903210843AA
:102C6000674908610820184000280BD06448406973
:102C7000C008C00062494861084640690221084313
:102C80005F494861082018435649403148635F480E
:102C900004600068534948625C48006840088861E5
:102CA0005A4800684008C8615848006840080862EF
:102CB0000815486158E04F4800680121490208435F
:102CC0004C490860CB20C00018434449C863022027
:102CD000184000280BD04A48806AC008C000484904
:102CE00088620846806A02210843454988620420B8
:102CF000184000280ED0424880380069C008C00043
:102D00003F498039086108460069022108433C496F
:102D1000803908610820184000280ED03848403813
:102D2000406BC008C0003649403948630846406BD4
:102D30000321084332494039486308201843274992
:102D40004031486332480460006824494862304892
:102D5000006888612E4800684008C8612C480068F7
:102D6000400808620815486130BD002816D00029C7
:102D700006D0012907D0022908D003290CD108E088
:102D8000184B9A6109E0174BDA6106E0154B1A629D
:102D900003E0144B5A6200E000BF16E0002906D0A1
:102DA000012907D0022908D003290CD108E00B4BD8
:102DB0009A6109E0094BDA6106E0084B1A6203E008
:102DC000064B5A6200E000BF00BF7047C206D20E39
:102DD000012191400F4A11607047000000400140FE
:102DE000080000100080014024000010A401001021
:102DF000C401001080800440440100104C01001008
:102E0000804004404801001050010010580100109B
:102E10005401001000E100E0FA49886940210140B6
:102E200040290AD1F8490978491CF74A1170F54937
:102E3000C96940221143F34AD161082101400829A0
:102E40000AD1F2490978491CF04A1170ED49C96963
:102E500008221143EB4AD1617047002806D00128AF
:102E60000CD0022812D0032820D117E0E54AD269FD
:102E700001238B401A43E34BDA6118E0E44AD2693C
:102E800001238B401A43E24BDA6110E0E14AD26938
:102E900001238B401A43DF4BDA6108E0DE4AD26936
:102EA00001238B401A43DC4BDA6100E000BF00BF16
:102EB000704710B502460020002A06D0012A0DD026
:102EC000022A14D0032A24D11AE0CE4B9B69012494
:102ED0008C402340002B00D001201BE0CC4B9B6991
:102EE00001248C402340002B00D0012012E0C94B6C
:102EF0009B6901248C402340002B00D0012009E075
:102F0000C54B9B6901248C402340002B00D001203D
:102F100000E000BF00BF10BD10B5C0480068401CF5
:102F2000BE49086001210846FFF7C3FF0446002C94
:102F300008D0BB480068401CB94908600121084618
:102F4000FFF78BFF10BDB34988691021014010299C
:102F50000AD1B4490978491CB24A1170AD49C9690E
:102F600010221143AB4AD1617047AB4988690421F3
:102F70000140042911D1AC49C96B04221140490117
:102F8000AA4A1170A449C96904221143A24AD16115
:102F9000A6490978491CA54A117000BF00BF7047B7
:102FA000A348006840210843A14908601F2001216F
:102FB0008140A04A116000BF704770B5049C002892
:102FC00006D0012838D002286AD003287BD19CE0A3
:102FD000002A18D18B4D6D6801268E40B543894E6D
:102FE0007560002B07D13546AD6801268E40B5438C
:102FF000844EB5600EE0834DAD6801268E403543AA
:10300000804EB56006E07F4D6D6801268E403543E9
:103010007C4E7560002C07D17A4DED6801268E40FC
:10302000B543784EF56006E0764DED6801268E409A
:103030003543744EF5609DE0002A18D1744D6D68DB
:1030400001268E40B543724E7560002B07D1354680
:10305000AD6801268E40B5436D4EB5600EE06C4DF7
:10306000AD6801268E403543694EB56006E0684D77
:103070006D6801268E403543654E7560002C07D182
:10308000634DED6801268E40B543614EF56006E064
:103090005F4DED6801268E4035435D4EF56069E079
:1030A000002A19D15B4D6D6801268E40B543594EFB
:1030B0007560002B08D13546AD6801268E40B543BA
:1030C000544EB5600FE054E0524DAD6801268E407D
:1030D0003543504EB56006E04E4D6D6801268E407A
:1030E00035434C4E7560002C07D14A4DED680126E2
:1030F0008E40B543474EF56006E0464DED6801262B
:103100008E403543434EF56034E0002A18D1424DDD
:103110006D6801268E40B5433F4E7560002B07D188
:103120003546AD6801268E40B5433B4EB5600EE096
:10313000394DAD6801268E403543374EB56006E007
:10314000354D6D6801268E403543334E7560002C39
:1031500007D1314DED6801268E40B5432E4EF56006
:1031600006E02D4DED6801268E4035432A4EF56070
:1031700000E000BF00BF70BD002806D001280CD0C1
:10318000022812D0032820D117E01E4A1269012319
:103190008B401A431B4B1A6118E01D4A1269012328
:1031A0008B401A431A4B1A6110E01A4A1269012324
:1031B0008B401A43174B1A6108E0174A1269012322
:1031C0008B401A43144B1A6100E000BF00BF7047E8
:1031D000002806D001280CD002282DD003283BD18E
:1031E00032E0084A126901238B409A43054B1A6169
:1031F00033E0074A126901238B409A43044B1A615A
:103200002BE0000000800050C1010010BF01001041
:103210000080015000800250008003506C010010BB
:103220007C010010C0010010C03F035016000010C8
:103230008080044000E100E02A4A126901238B40AB
:103240009A43284B1A6108E0274A136901228A40F1
:103250009343254A136100E000BF00BF704730B5BB
:1032600013468B408400214D2D5901248C40A4002D
:103270002B5130BD30B5002A11D083001B4CE358D0
:103280000124E4031B191B6801248C4023438400A0
:10329000164D2C590125ED036419236010E08300BD
:1032A000124CE3580124E4031B191B6801248C40D1
:1032B000A34384000D4D2C590125ED0364192360AF
:1032C00030BD30B50246002000239400074D2D5933
:1032D00001248C40A4002B5901248C409C4200D135
:1032E000012030BD0080025000800350B069000012
:1032F000F0B500BF974B9B68D8B240104007400F15
:10330000032820D1934B5B69D9B29E23194205D083
:10331000914B19608F4B1B68DCB2F0BDCB07DB0F04
:1033200010D08C4D2D68EEB28C4D2B685D1C8B4FF0
:103330003D608B4DEE543B461B68102B72D1002331
:103340003D462B606EE0022835D1864B1B78002B62
:1033500013D1804B1B68DAB2FA2A03D0F52A01D0C8
:10336000FC2A20D17D4D2B685D1C7C4E35607E4D46
:10337000EA5401237B4D2B7015E0764D2D68EEB29B
:10338000764D2B685D1C754F3D60774DEE543B4686
:103390001B68764D2D78AB4205D10123744D2B70FF
:1033A0000023704D2B706D4B1B68102B3AD10023FE
:1033B0006A4D2B6036E006280AD1674B1B68FF2553
:1033C00001352B43644D2B600023664D2B7029E0A3
:1033D000012827D15F4B5B69D9B22023194218D04D
:1033E0000123644D2B60644B1B68002B0AD0634B98
:1033F0001B685B1C614D2B605F4B1B685B1E5E4D49
:103400002B600FE05E4BDB6B0825AB435C4DEB6341
:1034100008E00023574D2B60594BDB6B0825AB436D
:10342000574DEB6300BF78E7F8B5044601205149DA
:103430000860002049490860152001218140514A57
:10344000116000BF5048406AC008C0004E49486241
:103450000846406A012108434B4948620846806A91
:10346000C008C00088620846806A012108434649B6
:1034700088624648006801210903084343490860FF
:103480000120886183203349C860404886693146FD
:103490003F48006803F094F907092146384603F0D5
:1034A0008FF90546280A2B494860E8B208600320D6
:1034B000C86087208860072088600846466900BF8A
:1034C00024484069602108406028F9D101E0214882
:1034D000066820484069C007C00FF8D115200121B7
:1034E0008140284A803A116000BF0720194948608E
:1034F000F8BDF8B506460D4600241F48056006E0F5
:10350000102C04DA305D23490855601CC4B22846EB
:103510006D1E0028F4D1032302461F4900901FA00E
:10352000FFF7F0F8C4B2F8BD1549C96B0822914302
:10353000134AD1630749086000BF06494969402220
:103540001142FAD00E49C96B082211430C4AD163CB
:103550007047000000800040940100108C010010B2
:10356000D408001090010010E8080010910100102C
:10357000A0010010880100109C01001098010010AB
:10358000C03F035080E100E0804004408080044060
:1035900008000010F8080010CF2800003438355F0C
:1035A000636865636B5F73656E640000014606E0E7
:1035B0004B22920100E0521E002AFCD1491E002934
:1035C000F6D17047F8B500230021002417E0A000D1
:1035D000FB4FC019807800901120471A0098B8401E
:1035E0000343491CA000F64FC019C0786C2805D1D0
:1035F0001120471A0098B8400343491C641C122943
:1036000005D2EF484030007A401CA042DFD80021AC
:103610000AE007258D401846284202D02840A842DB
:1036200001D10120F8BD491C1029F2D3002200214C
:1036300012E05004020C1020401A1F46C740BE077B
:10364000B60F002E01D0032E01D10120EAE7012E92
:1036500001D101200243891C1229EAD3FF20013045
:10366000024201D10120DDE7D64F3A700020D9E7B0
:10367000024600200F210EE001238B40134204D0AC
:10368000400040000123184303E040000123184399
:1036900040004B1E59B20029EEDA70470146002067
:1036A000CA05D20DFF2391339A4205DBCA05D20D1C
:1036B000FF239E339A4227DDCA05D20DFF23A13393
:1036C0009A4204DBCA05D20D5B1D9A421CDDCA0575
:1036D000D20DFF23B1339A4205DBCA05D20DFF2379
:1036E000C6339A4210DDCA05D20DD31FFF3BF93B0A
:1036F0000AD0A9221202914206D0B34A914203D0C5
:10370000BB221202914200D10120704701460020E5
:10371000CA05D20DFF2321339A4206DBCA05D20D1A
:10372000FF2381339A4200DC0120FF2212020A406B
:10373000A5231B029A4203D0A7221202914200D174
:103740000120704710B59E484030007A002803D110
:1037500001209E49087022E099484030007A0128F3
:1037600003D103209949087019E000BF01F03FFA26
:10377000002801D0002006E0FFF724FF002801D038
:10378000002000E00120002806D0002090490870A9
:1037900002208E49087002E003208C49087010BD99
:1037A000F1B5002601270098FFF762FF0446009854
:1037B000FFF774FF05460098FFF7A8FF002800D028
:1037C000022721E000BF834800780028FBD100BF1A
:1037D0000120804908707E4805707F4804607F485A
:1037E000C06B402188437D49C86300207C498860C4
:1037F000FF20A230886100208862032048610120F8
:10380000486000BF701CC6B2BE42DBDBF8BD10B51D
:1038100073480068C1B2C807C00F77D00120704A52
:1038200010606C48007801280CD16C48C06B4022B5
:1038300010436A4AD06300206A4A10700220654A29
:103840001070FEE063480078022823D162480068C7
:10385000C00FC00706D06148C06B402210435F4ACA
:10386000D06305E05D48C06B402290435B4AD06363
:10387000594800684000584A10605A480078401C77
:10388000584A1070104600782028DAD10320514A97
:103890001070D6E04F48007803281ED14F48C06B07
:1038A000402210434D4AD0634948007800280DD08B
:1038B0004D484B4A90610020424A10700022404817
:1038C000403002720420434A1070BAE04748444A2C
:1038D000906105203F4A1070B3E03E48007804280C
:1038E00009D14148D0303E4A9061072090620620BD
:1038F000384A1070A5E037480078062807D13C48C0
:10390000374A90610720334A10709AE02AE0314824
:10391000007807280CD10220314A506000209062C4
:103920001020106000202A4A10702A4A107088E087
:103930002848007808280AD12E48294A906100209A
:103940009062102010600520224A107079E0214812
:103950000078052875D10220214A506000201D4AB8
:1039600010706EE0102001426BD0154A4032107A80
:1039700010221B4B1A60174A1278062A02D1002225
:103980009A6250E0134A1278072A39D11A4A144B26
:103990009A6100229A6001221A60184A9268002AED
:1039A00001D1012200E000228300054C1B199A700E
:1039B00000228300E2520822064B1A7033E0000016
:1039C00008090010B001001001B90000B101001099
:1039D000B3010010B2010010B4010010C03F02504A
:1039E00000400140A5010010840600003D2F0000AA
:1039F000B2290000772500006B270000000001506D
:103A0000FE4A1278082A0ED1FD4A9268002A01D196
:103A1000012200E000228300FA4C1B199A70FA4A36
:103A2000D26A8300E252F74A4032127A112A07DA48
:103A3000F44A4032127A521CD3B2F24A4032137224
:103A400000BF10BD70B504460D466188481CFF21BB
:103A500002F0C0FE2088814201D1002070BD618843
:103A6000481C60804900201D45526088FF2102F0FB
:103A7000B1FE61800120F1E770B504460D46208853
:103A80006188884201D1002070BD2188481C2080B7
:103A90004900201D405A288000212088401E4200F5
:103AA000201D81522088FF2102F094FE21800120F8
:103AB000EAE741880180704701460020CAB2B52379
:103AC0001B021A431043704701460020FF221202D6
:103AD0000A40120AB3231B021A43104370470146DF
:103AE0000020FF2212040A40120CB1231B021A43C9
:103AF0001043704710B5A9200002FFF751FE00BF28
:103B0000BE4800780028FBD1FFF71CFEBF480078B4
:103B1000032801D1FF2010BDBC480078022802D143
:103B2000BB480078F7E7B9480078012801D10020A8
:103B3000F1E70120EFE710B50446BB200002FFF7D4
:103B40002FFE00BFAD4800780028FBD13220FFF7E0
:103B50002DFDFFF7F7FDAE48007800283FD000208C
:103B6000AB4908706100B72212021143481CFFF7ED
:103B700017FE00BFA14800780028FBD11420FFF7F2
:103B800015FDBB200002FFF70BFE00BF9B4800782D
:103B90000028FBD11420FFF709FDFFF7D3FD6000DB
:103BA000401C9B490978884219D100209849087027
:103BB000AB200002FFF7F4FD00BF9048007800281A
:103BC000FBD11420FFF7F2FC6102FF31013188B212
:103BD000FFF7E6FD00BF894800780028FBD110BD43
:103BE00030B5024600200B4605E01578521C2C1813
:103BF000E0B25C1EE3B2002BF7D1FF240134241A9B
:103C0000E0B230BD08B583480078FA287DD18148FC
:103C10004078EC287FD17F4880787F4909788842B6
:103C200079D17C48C078DE2841D004DCBA2855D050
:103C3000DD2868D13EE0FC280BD0FD2863D1754813
:103C40004079002804D1754908700820744908702B
:103C50005AE0FCF703FC01206E4B9B1C002201463E
:103C60000090072002F054FC00281FD1694880789A
:103C700069490870FE206749C87001200871042056
:103C800048718020887107216248FFF7A9FF6149C8
:103C9000C87108215F48FFF72CFC00205F490870BD
:103CA00008205F49087000205E4908802CE0FCF77E
:103CB00079FD29E0DC205749C8700846C079401CCE
:103CC000C87108215348FFF714FC524800790002DC
:103CD0005049497908435349088015E0FE204D4971
:103CE000C870012008710420487107214948FFF776
:103CF00077FF4849C87108214648FFF7FAFB03E0FF
:103D000003E008E0FFE700BF05E042480078FC2838
:103D100001D1FCF765FD08BDF8B5002402E11620CD
:103D2000604341494018017A162060433E4A80189A
:103D3000407881420EDD16206043114640184078DD
:103D4000002807D0162060434018017A16206043EF
:103D5000801841701620604333494018818A16202C
:103D60006043314A8018408A81427DD016206043EA
:103D70001146401840781621614389188978884295
:103D800060DD16226243284BD21852781623634313
:103D9000254FDB199B78D21A16236343DB195B8A04
:103DA0005B1C5A431046162262433B46D218918A46
:103DB00002F010FD162161433A46891889784018AF
:103DC000C04386B2F0B219490D5C1620604311461B
:103DD00040180079A84234D0162060434018C07AB9
:103DE0004002284381B216206043801801820121DD
:103DF0001620604311541620604319E0B2010010F0
:103E0000000001500809001000400140B1010010FD
:103E1000B0010010D408001026000010A40100100A
:103E2000910100102800001052090010D069000014
:103E300011464018408A401C81B216206043801809
:103E400041826DE016206043FE49401840781621FB
:103E50006143FC4A89188978884261DA16226243F4
:103E6000F84BD218927800E047E016236343F54FF1
:103E7000DB195B78D21A16236343DB195B8A5B1C60
:103E80005A431046162262433B46D218918A02F0EA
:103E9000A1FC162161433A4689188978081AC04363
:103EA00086B2F0B2E8490D5C162060431146401816
:103EB0000079A84234D0162060434018C07A4002EE
:103EC000284385B2162060434018C07A4002284338
:103ED00081B21620604380180182012116206043C0
:103EE00011541620604311464018408A401C81B28C
:103EF000162060438018418212E016206043D149A9
:103F00004018417816206043CE4A80188170012104
:103F100016206043801841821620604380188182F9
:103F2000601C84B2C02C00DAF9E6F8BD10B5C748B1
:103F3000007801282CD1C348007800280AD0C14855
:103F4000007C7F2252028118C148FFF77BFD0120CF
:103F5000C0490870C048007800280AD0BE48007CDC
:103F60007F2252028118BD48FFF76CFD0120BC4939
:103F70000870BC48007800280AD0BA48007C7F222C
:103F800052028118B848FFF75DFD0120B74908705B
:103F9000002482E016206043AA49085C00287AD0F9
:103FA000162060434018807B8007800F012804D0D2
:103FB00002281BD003284BD131E0AD4800780028FF
:103FC00013D1A2480078002807D1162060439D4AEB
:103FD0008018018A9E48FFF735FD01209D49087031
:103FE000002116206043974A115453E0A1480078FD
:103FF000002813D195480078002807D11620604387
:10400000904A8018018A9548FFF71CFD0021162070
:1040100060438C4A11540120914908703AE0964857
:104020000078002813D189480078002807D116208D
:104030006043844A8018018A8B48FFF703FD002102
:10404000162060437F4A115401208849087021E0FE
:104050007E480078002818D1002116206043794A54
:104060001154FF21162060438018417016206043D0
:10407000801881700121162060438018418216202B
:1040800060438018818205E005E00021162060432E
:104090006C4A115400BF601C84B2C02C00DA79E76E
:1040A00010BDF0B585B000207449087000BF744899
:1040B000FFF776FB00BF00BF6D4800780028FBD1FA
:1040C0007048FFF76DFB00BF694800780028FBD1FE
:1040D0000A20FFF76BFAA5200002FFF761FB00BF83
:1040E000634800780028FBD100BF6748C06B0221FD
:1040F00088436549C863002559E004200090A80062
:10410000624A811801AB0022072002F001FA002860
:104110004CD1694648790004897909020843694607
:10412000C979084304466946087980113ED1C979A6
:10413000B522120211430846FFF732FB00BF4C487C
:1041400000780028FBD069468979B3221202114316
:104150000846FFF725FB00BF454800780028FBD044
:1041600069464979B122120211430846FFF718FB4C
:1041700000BF3F4800780028FBD04348C06B0221B5
:1041800048404149C863FFF7B5FCFF280ED1684697
:1041900000798006800E3949087008460078FFF7DC
:1041A000CAFC36480078401C344908706D1C402D0C
:1041B000A3D33548C06B022148403349C863FF2070
:1041C000F530FFF7F3F9A1200002FFF7E9FA2E48D6
:1041D000C06B022148402C49C863FF20F530FFF72F
:1041E000E5F92B48FFF7DCFA00BF214800780028EA
:1041F000FBD1A7200002FFF7D3FA00BF1C480078CC
:104200000028FBD12048C06B022148401E49C863EA
:10421000402528E100261F4FDFE0F019401C44082C
:10422000B44201D0BC4253D12046FFF745FC009078
:10423000FFF7B6FA00BF0E4800780028FBD12046F1
:104240002AE0000052090010D0690000BE010010F1
:10425000040200105E010010D20E001006040010CF
:104260005F010010521400100806001060010010D9
:10427000B2010010E6010010D2010010C8010010C8
:10428000FFA3000080FF0000C03F0350296600002C
:10429000FFA50000FFFFFF00FFF716FC0090FFF7EF
:1042A0007FFA00BFFA4800780028FBD12046FFF7CC
:1042B00016FC0090FFF774FA00BFF548007800285C
:1042C000FBD1F448C06B02214840F249C86387E043
:1042D0000120C005844233D12046FFF7EDFB00905A
:1042E000FFF75EFA00BFEA4800780028FBD12046BD
:1042F000FFF7EAFB0090FFF753FA00BFE4480078AD
:104300000028FBD12046FFF7EAFB0090FFF748FAB0
:1043100000BFDF4800780028FBD1DF480460DD489B
:10432000C06B02214840DB49C863FFF7E3FBFF286D
:1043300004D127460020D94908704EE026464CE0BB
:104340001420FFF733F9E0B2D3490968C9B28842B3
:1043500005D02046FFF7B0FB0090FFF721FA00BF21
:10436000CB4800780028FBD1FF2000022040CA493A
:104370000968FF2212021140884205D02046FFF74B
:10438000A3FB0090FFF70CFA00BFC148007800289B
:10439000FBD1FF2000042040BF490968FF2212041E
:1043A0001140884205D02046FFF799FB0090FFF7A7
:1043B000F7F900BFB64800780028FBD1B548C06BBC
:1043C00002214840B349C863B3480460FFF792FB39
:1043D000FF2801D1274600E02646BE4200D01CE758
:1043E00000BFAF48844209D1A1200002FFF7D8F9ED
:1043F00000BFA74800780028FBD137E0A948007823
:10440000FFF799FBA7480178684601712002010E69
:10441000684641712004010E68468171C471042010
:104420000090A048007880009F4A811801AB0022CC
:10443000072002F01AF80A20FFF7B8F89948007828
:10444000401C98490870084600783F2804DDA120E8
:104450000002FFF7A5F909E08E48C06B0221484031
:104460008C49C8636D1E002D00D0D3E600BF05B097
:10447000F0BDF0B585B0CA208C49C87008464079B7
:10448000162148438A494018807B8007800F012805
:1044900004D002280CD003281ED113E07C4C7F4F9F
:1044A0008448019084480290844D8548009015E02E
:1044B000844C85480190854F85480290854D8648FB
:1044C00000900BE0854C86480190864F864802900C
:1044D000864D8748009001E005B0F0BD00BFA320E5
:1044E0000002A84700BF20780028FCD103994902A8
:1044F000FF31993188B2A84700BF20780028FCD14D
:1045000000988047387800287ED16420FFF74EF865
:104510006048C06B022148405E49C863A320000286
:10452000A84700BF20780028FCD103260AE06420B9
:10453000FFF73CF85748C06B022148405549C86313
:10454000701EC6B2002EF2D103994902FF31993193
:1045500088B2A84700BF20780028FCD10098804787
:104560003878002877D107260AE06420FFF71EF884
:104570004848C06B022148404649C863701EC6B215
:10458000002EF2D1A3200002A84700BF2078002807
:10459000FCD103260AE06420FFF708F83D48C06B11
:1045A000022148403B49C863701EC6B2002EF2D1BA
:1045B00003994902FF31993188B2A84700BF20789A
:1045C0000028FCD1009880473878002843D149481A
:1045D000A84700BF20780028FCD14748A84700BF63
:1045E00020780028FCD1A3200002A84700BF207833
:1045F0000028FCD14048C01EA84700BF20780028F2
:10460000FCD13C48FA3000E025E0A8472148C06BC7
:10461000022148401F49C86300BF20780028FCD110
:104620003548001FA84700BF20780028FCD1A320F0
:104630000002A84700BF20780028FCD12E48401E69
:10464000A84700BF20780028FCD11248C06B022187
:1046500048401049C86300BF3EE708B500F0FCFAC7
:1046600001F0BDF800F0F9FB2448FFF722FA2448D6
:10467000006802210843224908600648C06B0821EF
:1046800008430449C8630020FEF73AF9AEE200008F
:10469000B2010010C03F0350A8010010B00100108B
:1046A000FFFFFF00C801001029660000D4080010B9
:1046B00052090010B3010010B1010010A137000031
:1046C00045370000E6010010E7010010E40100108A
:1046D000E5010010715700004F580000D201001092
:1046E000D3010010D0010010D1010010ED4D0000E9
:1046F000CB4E000004A300002EFF000004020010B7
:104700000080035030BFFEF78AF8FC48007800288C
:1047100030D00020FA490880FA480078401EC1B223
:10472000F948FFF75DFAF7490978491EF64A515CE6
:10473000884217D1002405E0F348005DF34908558D
:10474000601CC4B2EF4800788442F5DBF048007882
:10475000002802D1FDF748FF04E0FFF753FA0020DC
:10476000EC490860E5480078401EE44908700020E4
:10477000E9490860E94800881021084231D0E8483A
:10478000006996280ED9E748C06B02218843E549A5
:10479000C86300BFE448E549C860BFF3408F00BF6D
:1047A00000BFFEE7E24800881021084219D0FA2035
:1047B000D6490870EC204870DE4800788870FE20EA
:1047C000C8700120087104204871002088710721F9
:1047D000CE48FFF705FACD49C8710821CB48FEF74E
:1047E00088FED5480078012823D1D44800780028D5
:1047F0001FD1FEF7A7FFFA20C4490870EC204870CB
:10480000CC48007888706E20C87003200871CC48AE
:1048100000784871002088710721BC48FFF7E0F953
:10482000BA49C8710020C44908700821B748FEF78A
:1048300060FEC4480078012823D1C34800780028CE
:104840001FD101F004F8FA20B0490870EC2048703C
:10485000B848007888706E20C87003200871BB4883
:1048600000784871002088710721A848FFF7B8F93F
:10487000A649C8710020B34908700821A348FEF773
:1048800038FEB3480078012823D1B24800780028C8
:104890001FD100F01AFBFA209C490870EC204870E8
:1048A000A448007888706E20C87003200871A7485B
:1048B000007848710020887107219448FFF790F92B
:1048C0009249C8710020A249087008218F48FEF75C
:1048D00010FEA1480078002817D0A04800780028D2
:1048E00013D19648007800280FD19D499D48FFF7C5
:1048F000C3F8002804D09A480088FEF751FF04E06E
:1049000000207F4908809449087097480078002863
:1049100017D092480078002813D18B4800780028DF
:104920000FD18F499148FFF7A7F8002804D08C4891
:10493000008800F01DFF04E000208D4908808A49AE
:1049400008708C480078002817D084480078002828
:1049500013D18048007800280FD181498648FFF79D
:104960008BF8002804D07E48008800F03FFA04E06D
:104970000020824908807F4908708148007800281B
:104980005AD001207F4B00227F490090072001F080
:10499000BFFD002806D17B480078012802D0002006
:1049A000784908706D480078002804D06B4800787A
:1049B000401E6A49087075480078002809D0002018
:1049C00072490870724800780221084370490870E3
:1049D00005E06F480078022188436D4908706D48F2
:1049E0000078002809D000206A49087068480078DB
:1049F000042108436649087005E0654800780421F1
:104A000088436349087064480078002809D0002072
:104A1000614908705E480078082108435C490870C5
:104A200005E05B4800780821884359490870FFF782
:104A30007DFA00205249087058480068002808D0C4
:104A400046480078002801D1FFF766F90020534955
:104A500008605348007801284FDD3248C56B0421B7
:104A60000D4050480078802108406901884244D1B7
:104A70002C48C06B0421084228D14B4800780428F8
:104A800023D00720204B00224849009001F040FD30
:104A900007211D48FFF7A4F81B49C87101201749D9
:104AA0000870002405E01848005D18490855601C8E
:104AB000C4B2082CF7DB08211448FEF71AFD394868
:104AC0000078802108403749087086E0384800782F
:104AD00000286FD007200C4B002234490831009089
:104AE00001F016FD07210848FFF77AF80649C8715A
:104AF000012002490870002463E077E0A001001063
:104B00001000001091010010E8080010D4080010F7
:104B1000A4010010C40100108C010010F801001065
:104B2000F00A0010C03F03500400FA0500ED00E059
:104B3000F401001026000010B3010010B2010010B3
:104B4000B0010010E7010010E6010010E4010010C0
:104B5000D3010010D20100105E0100100E00001001
:104B60005C010010040200105F0100100604001038
:104B70001200001060010010080600101400001060
:104B800024000010BE01001059720000BF01001087
:104B9000C2010010C0010010C1010010200000106F
:104BA0001700001016000010180000101A0F000067
:104BB0001900001011E04448005D44490855601C8C
:104BC000C4B2082CF7DB08214048FEF792FC4048AD
:104BD0000078802108403E49087000203D49087057
:104BE0003B48007880210840394908708AE570B553
:104BF000002124E08800384D2B5A481C80002C5A94
:104C0000E21AFF202D30824208D33448824205D870
:104C100073208D00304EAD19E8700FE0A7208000A2
:104C2000824209D37D20C000824205D86C208D00CD
:104C3000294EAD19E87001E0012070BD491C2648DD
:104C40004030007A401E8842D4D878208D00224E11
:104C5000AD19E8700020F0E710B500202049087079
:104C600020490880204908702049087020490870B0
:104C7000204908702049086000211748403001721F
:104C80001E48C06B402108431C49C8631C4800688B
:104C9000402108431A490860D2201A4908621A497B
:104CA0001A48006801F08CFD401E1949C8601220A6
:104CB00001218140174A116000BF00BF01218140DE
:104CC000154A116000BF10BDE8080010D40800109C
:104CD000160000101700001008090010260200003E
:104CE000AC010010AE010010B0010010B1010010C5
:104CF000B2010010B3010010B4010010C03F025017
:104D0000008002508040044040420F000400001028
:104D10000040014080E200E000E100E0F8B500233F
:104D20000021002417E0A000F64FC0198078009001
:104D30001120471A0098B8400343491CA000F14FC6
:104D4000C019C0786C2805D11120471A0098B840C6
:104D50000343491C641C122905D2EA484030007AFA
:104D6000401CA042DFD800210CE007258D401846EA
:104D70002840002803D018462840A84201D101202D
:104D8000F8BD491C1029F0D30022002112E0500484
:104D9000020C1020401A1F46C740BE07B60F002E57
:104DA00001D0032E01D10120EAE7012E01D101201B
:104DB0000243891C1229EAD3FF2001301040002849
:104DC00001D10120DCE7D04F3A700020D8E710B5C0
:104DD00000F022FC002801D0002010BDFFF79EFF4C
:104DE000002801D00020F8E70120F6E7F1B5002601
:104DF00001270098FEF73CFC04460098FEF74EFCA5
:104E000005460098FEF782FC002800D0022721E02A
:104E100000BFBE4800780028FBD100BF0120BB497D
:104E20000870BB480570BB480460BB48C06B4008B5
:104E30004000B949C8630020B8498860FF20A2300B
:104E4000886100208862032048610120486000BF1B
:104E5000701CC6B2BE42DBDBF8BD10B50020B04905
:104E60000870B0490880A8490870AF490870A74980
:104E70000870A7490870A74908600021A148403080
:104E80000172A548C06B01210843A349C863A74824
:104E9000006801210843A5490860D120A449486160
:104EA000A449A548006801F08BFC401E9B49C860DE
:104EB000112001218140A14A116000BF00BF0121E2
:104EC00081409F4A116000BF10BD10B58D48403031
:104ED000007A002803D101209349087016E0894820
:104EE0004030007A012803D103208F4908700DE07B
:104EF000FFF76DFF002806D00020854908700220CA
:104F00008949087002E003208749087010BD10B578
:104F100082480068C1B2C807C00F002878D00120BD
:104F20007E4A10607948007801280CD17A48C06B1D
:104F300001221043784AD0630020824A1070022078
:104F4000724A1070DDE071480078022824D171485F
:104F50000068C00FC007002806D06F48C06B012250
:104F600010436D4AD06305E06B48C06B40084000B9
:104F7000694AD063674800684000664A106071481B
:104F80000078401C6F4A1070104600782028D9D154
:104F900003205E4A1070B4E05C48007803281ED1FC
:104FA0005D48C06B012210435B4AD06358480078CB
:104FB00000280DD06448594A90610020524A107070
:104FC00000225048403002720420504A107098E08D
:104FD0005E48524A906105204C4A107091E04B485F
:104FE0000078042809D15848D0304C4A90610720F5
:104FF00090620620454A107083E0444800780628F5
:1050000007D15348454A90610720404A107078E024
:1050100028E03E48007807280AD102203F4A506025
:1050200000209062102010600020384A107068E064
:105030003648007808280AD14648384A906100204E
:105040009062102010600520304A107059E02F48FF
:105050000078052855D10220304A506000202B4AA4
:1050600010704EE01020084000284AD0254A4032F7
:10507000107A1022294B1A60244A1278062A02D18B
:1050800000229A622FE0214A1278072A18D1324A68
:10509000224B9A6100229A6001221A602F4A1268FC
:1050A000002A01D1012200E000228300154C1B19C7
:1050B0009A7000228300E2520822144B1A7012E008
:1050C000124A1278082A0ED1244A1268002A01D105
:1050D000012200E0002283000A4C1B199A700F4A3B
:1050E000D26A8300E252074A4032127A112A07DA62
:1050F000044A4032127A521CD3B2024A403213722E
:1051000000BF10BD5A0A0010D0010010D2010010DB
:10511000D3010010D4010010C03F02500000014034
:10512000CC010010CE010010D1010010008002500F
:105130000040044040420F000400001080E200E004
:1051400000E100E0D8010010840600003D2F0000BF
:10515000B2290000772500006B27000000200250D4
:1051600010B5A9200002FFF741FE00BFF948007802
:105170000028FBD1FFF7A9FEF7480078032801D1EA
:10518000FF2010BDF4480078022802D1F3480078CF
:10519000F7E7F1480078012801D10020F1E7EF4856
:1051A0000078EEE710B50446BB200002FFF71EFEB4
:1051B00000BFE84800780028FBD13220FEF7F6F95E
:1051C000FFF783FEE548007800283FD00020E34940
:1051D00008706100B72212021143481CFFF706FE57
:1051E00000BFDC4800780028FBD11420FEF7DEF970
:1051F000BB200002FFF7FAFD00BFD6480078002868
:10520000FBD11420FEF7D2F9FFF75FFE6000401CCF
:10521000D2490978884219D10020D0490870AB20C2
:105220000002FFF7E3FD00BFCA4800780028FBD169
:105230001420FEF7BBF96102FF31013188B2FFF79C
:10524000D5FD00BFC34800780028FBD110BDF0B5E4
:1052500085B00020C249087000BFC248FFF7C6FDF4
:1052600000BF00BFBB4800780028FBD1BE48FFF755
:10527000BDFD00BFB74800780028FBD10A20FEF72B
:1052800095F9A5200002FFF7B1FD00BFB1480078F5
:105290000028FBD100BFB548C06B02214840B3498C
:1052A000C863002566E004200090A800B04A811879
:1052B00001AB0022072001F02BF9002859D16946E3
:1052C000487900048979090208436946C979084385
:1052D000044669460879801102284AD1C979B52265
:1052E000120211430846FFF781FD00BF994800787C
:1052F0000028FBD069468979B3221202114308467F
:10530000FFF774FD00BF934800780028FBD0694682
:105310004979B122120211430846FFF767FD00BF29
:105320008C4800780028FBD09048C06B02210840D0
:10533000022805D18D48C06B88438C49C86305E0BD
:105340008A48C06B022108438849C863FFF708FFF9
:10535000FF280ED1684600798006800E80490870CB
:1053600008460078FFF71EFF7D480078401C7C4906
:1053700008706D1C402D96D37C48C06B02214840BC
:105380007A49C863FF20F530FEF710F97748C06B03
:10539000022148407549C863A1200002FFF726FD9D
:1053A000FF20F530FEF702F97048C06B022148403B
:1053B0006E49C8636F48FFF719FD00BF6548007864
:1053C0000028FBD1A7200002FFF710FD00BF6148B5
:1053D00000780028FBD16548C06B02214840634932
:1053E000C863402512E10026634FCAE0F019401C53
:1053F0004408B44201D0BC4227D12046FEF75CFBF2
:105400000090FFF7F3FC00BF524800780028FBD162
:105410002046FEF759FB0090FFF7E8FC00BF4D481F
:1054200000780028FBD12046FEF759FB0090FFF7DB
:10543000DDFC00BF474800780028FBD14B48C06B1B
:10544000022148404949C8639EE00120C0058442CA
:1054500033D12046FEF730FB0090FFF7C7FC00BFBA
:105460003C4800780028FBD12046FEF72DFB009039
:10547000FFF7BCFC00BF374800780028FBD120466E
:10548000FEF72DFB0090FFF7B1FC00BF314800781C
:105490000028FBD1394804603448C06B02214840E1
:1054A0003249C863FFF75CFEFF2804D1274600207D
:1054B0002A49087065E0264663E01420FEF776F876
:1054C000E0B22E490968C9B2884205D02046FEF7ED
:1054D000F3FA0090FFF78AFC00BF1E48007800280E
:1054E000FBD1FF200002204024490968FF2212025C
:1054F0001140884205D02046FEF7E6FA0090FFF7FB
:1055000075FC00BF134800780028FBD1FF20000481
:1055100020401A490968FF2212041140884205D030
:105520002046FEF7DCFA0090FFF760FC00BF094858
:1055300000780028FBD10D48C06B022148400B4980
:10554000C8630E480460FFF70BFEFF2818D12746FA
:1055500017E00000D2010010D1010010D0010010AE
:10556000C8010010FFA3000080FF0000C03F0350EF
:1055700029680000FFA50000FFFFFF00DC0100100C
:105580002646BE4200D031E700BF3E48844209D1E2
:10559000A1200002FFF72AFC00BF3B48007800284A
:1055A000FBD136E039480078FFF7FCFD374800783A
:1055B00080210843694608712002010E6846417146
:1055C0002004010E68468171C471042000902F48A8
:1055D000007880002E4A811801AB0022072000F0DD
:1055E00044FF2A480078401C284908702948C06BAD
:1055F000022148402749C863244800783F2804DD39
:10560000A1200002FFF7F2FB03E06D1E002D00D089
:10561000E9E600BF05B0F0BD70B5002124E08800C8
:105620001D4D2B5A481C80002C5AE21AFF202D30A9
:10563000824208D31948824205D873208D00164E45
:10564000AD19E8700FE0A7208000824209D37D20C9
:10565000C000824205D86C208D000F4EAD19E87055
:1056600001E0012070BD491C0B484030007A401E0B
:105670008842D4D878208D00074EAD19E8700020FC
:10568000F0E70000FFFFFF00D2010010C80100108A
:1056900029680000C03F03505A0A0010260200008B
:1056A000F8B500230021002417E0A000F64FC01930
:1056B000807800901120471A0098B8400343491C95
:1056C000A000F14FC019C0786C2805D11120471AED
:1056D0000098B8400343491C641C122905D2EA48CB
:1056E0004030007A401CA042DFD800210CE00725A2
:1056F0008D4018462840002803D018462840A8426C
:1057000001D10120F8BD491C1029F0D3002200214D
:1057100012E05004020C1020401A1F46C740BE077A
:10572000B60F002E01D0032E01D10120EAE7012E91
:1057300001D101200243891C1229EAD3FF20013044
:105740001040002801D10120DCE7D04F3A70002042
:10575000D8E710B500F018FC002801D0002010BDDB
:10576000FFF79EFF002801D00020F8E70120F6E7B0
:10577000F1B5002601270098FDF77AFF044600984E
:10578000FDF78CFF05460098FDF7C0FF002800D00C
:10579000022721E000BFBE4800780028FBD100BFEF
:1057A0000120BB490870BB480570BB480460BB487A
:1057B000C06B80218843B949C8630020B84988601C
:1057C000FF20A23088610020886203204861012008
:1057D000486000BF701CC6B2BE42DBDBF8BD10B52E
:1057E0000020B0490870B0490880A8490870AF4946
:1057F0000870A7490870A7490870A74908600021E8
:10580000A14840300172A548C06B80210843A349DC
:10581000C863A748006880210843A5490860D220D2
:10582000A449C861A449A548006800F0C9FF401E0A
:105830009B49C860102001218140A14A116000BF2E
:1058400000BF012181409F4A116000BF10BD10B50B
:105850008D484030007A002803D101209349087018
:1058600016E089484030007A012803D103208F498F
:1058700008700DE0FFF76DFF002806D00020854975
:10588000087002208949087002E0032087490870E7
:1058900010BD10B582480068C1B2C807C00F00280B
:1058A00078D001207E4A10607948007801280CD118
:1058B0007A48C06B80221043784AD0630020824A25
:1058C00010700220724A1070DDE0714800780228E2
:1058D00024D171480068C00FC007002806D06F4867
:1058E000C06B802210436D4AD06305E06B48C06BEB
:1058F00080229043694AD063674800684000664A46
:10590000106071480078401C6F4A10701046007893
:105910002028D9D103205E4A1070B4E05C4800789A
:1059200003281ED15D48C06B802210435B4AD063C0
:105930005848007800280DD06448594A90610020EA
:10594000524A107000225048403002720420504ADF
:10595000107098E05E48524A906105204C4A1070E1
:1059600091E04B480078042809D15848D0304C4A7F
:105970009061072090620620454A107083E04448F9
:105980000078062807D15348454A90610720404ACD
:10599000107078E028E03E48007807280AD10220FD
:1059A0003F4A506000209062102010600020384A6A
:1059B000107068E03648007808280AD14648384A0E
:1059C000906100209062102010600520304A107015
:1059D00059E02F480078052855D10220304A506000
:1059E00000202B4A10704EE01020084000284AD0BA
:1059F000254A4032107A1022294B1A60244A127824
:105A0000062A02D100229A622FE0214A1278072A40
:105A100018D1324A224B9A6100229A6001221A6000
:105A20002F4A1268002A01D1012200E000228300DF
:105A3000154C1B199A7000228300E2520822144B65
:105A40001A7012E0124A1278082A0ED1244A1268FB
:105A5000002A01D1012200E0002283000A4C1B1918
:105A60009A700F4AD26A8300E252074A4032127A91
:105A7000112A07DA044A4032127A521CD3B2024A7F
:105A80004032137200BF10BDA40A0010E4010010E0
:105A9000E6010010E7010010E8010010C03F0250CD
:105AA00000C00040E0010010E2010010E50100101C
:105AB000008002500040044040420F0004000010EB
:105AC00080E200E000E100E0EC010010840600004C
:105AD0003D2F0000B2290000772500006B27000051
