:020000040000FA
:10000000D01C001049010000510100005301000004
:1000100000000000000000000000000000000000E0
:10002000000000000000000000000000550100007A
:1000300000000000000000005701000085280000BB
:100040005B0100005B0100005B0100005B01000040
:100050005B0100005B0100005B0100005B01000030
:100060005B0100005B0100005B0100005B01000020
:100070005B0100005B0100005B0100005B01000010
:100080005B580000D74E0000C93700009B2A0000D3
:100090005B010000C53200005B0100005B01000055
:1000A0005B0100005B0100005B0100005B010000E0
:1000B0003F2F00001B2F0000ED2E0000ED2D000053
:1000C00000F002F800F030F80CA030C8083824180E
:1000D0002D18A246671EAB4654465D46AC4201D180
:1000E00000F022F87E460F3E0FCCB6460126334282
:1000F00000D0FB1AA246AB46334318479C6A000067
:10010000BC6A00000023002400250026103A01D319
:1001100078C1FBD8520700D330C100D50B607047BF
:100120001FB51FBD10B510BD00F0C7F81146FFF791
:10013000F7FF00F092FE06F0D4FB03B4FFF7F2FFE6
:1001400003BC06F0D9FB000007488047074800477A
:10015000FEE7FEE7FEE7FEE7FEE7FEE704480549A7
:10016000034A054B704700000F020000C100000069
:10017000D01A0010D01C0010D01A00103249334A97
:1001800011600121324A116051600021516001214A
:10019000516000BF2E494968C907C90F0029F9D02D
:1001A0002B4940398868400A40022021014303223C
:1001B0001143274A403A91602649896B8022914336
:1001C000244A916300BF22494039C968C907C90F51
:1001D0000029F8D003211E4A116301215163002137
:1001E00051630121516300BF1949496BC907C90F08
:1001F0000029F9D00121164A916314490968890040
:10020000154A116011460968144A1160704700B51B
:1002100000200F49403908620E48806B2021884336
:100220000C498863002300E05B1CFF2BFCD9FFF71F
:10023000A5FF07484030006801210904084304492C
:100240004031086000BD0000001BB7000000001036
:1002500040800440008204400400001008000010A8
:100260000F4800680121C90308430D4908600020B8
:100270000C4908601920012181400B4A116000BF20
:100280000A480B49486003200860AA20886055206E
:1002900088607047AA2006498860552088607047AA
:1002A000808004405C01001000E100E00090D00379
:1002B00000400040704770477047754606F018FBD5
:1002C000AE46050069465346C008C000854618B0D2
:1002D00020B5FFF743FF60BC00274908B64600265B
:1002E000C0C5C0C5C0C5C0C5C0C5C0C5C0C5C0C5E6
:1002F000403D49008D46704770470000FFFFFFFFFB
:1003000010B5002819DAFE4A03071B0F083B9B08AB
:100310009B00D2588307DC0EFF23A3409A438B0730
:100320001B0E8407E40EA3401A43F54B0407240F69
:10033000083CA408A4001A5118E0F24A03231B0247
:10034000D21883089B00D2588307DC0EFF23A340FA
:100350009A438B071B0E8407E40EA3401A43E94B14
:10036000032424021B198408A4001A5110BDA021E3
:10037000E54A5162E449C03108610121E24AC032D4
:100380005161002151610121516100BFDE49C0313D
:100390004969C907C90F0029F8D00121DA4AC032DA
:1003A0009161DA49896B40229143D84A9163704741
:1003B00010B5002202804280002104E000234C009E
:1003C000021D1353491CFF29F8D310BDC02043E080
:1003D000FF22411E16235943CD4BC9184A70411EB6
:1003E00016235943CA4BC9188A70411E1623594314
:1003F000C74BC9180A710122411E16235943C44B29
:10040000C9184A82411E16235943C14BC9188A8212
:10041000411E16235943BE4BC9180A720022411EC1
:1004200016235943BA4BC9188A72FF22411E16235C
:100430005943B74BC918CA720222411E16235943A9
:10044000B34BC9180A73FF22411E16235943B04B00
:10045000C9184A73411EC8B20028B9D1704770B597
:10046000B2B00120AB4B0022AB490090072006F050
:1004700033F80120A94B0022A7490831009007203A
:1004800006F02AF800241EE001200090A000A44AF3
:10049000811802AB0022072006F01EF8002810D1B8
:1004A0006846007A8106890E16206043984A8018B3
:1004B000C1726846007A8011401C16216143891878
:1004C0008873601C84B2C02CDEDBC02002AB00222B
:1004D00094490090072005F0FFFF00280CD100246C
:1004E00008E002A8015D16206043894A8018017364
:1004F000601C84B2C02CF4DBC02002AB002289490E
:10050000C0310090072005F0E7FF00280CD100243F
:1005100008E002A8015D162060437D4A80184173FF
:10052000601C84B2C02CF4DBC02002AB00227E49E8
:100530000090072005F0D0FF00280CD1002408E02F
:1005400002A8015D16206043714A80188171601C09
:1005500084B2C02CF4DBC02002AB00227249C0314F
:100560000090072005F0B8FF00280FD100240BE011
:1005700002A8005DC043401CC1B216206043644A1B
:1005800080180172601C84B2C02CF1DBC02002AB69
:10059000002266490090072005F09EFF00280CD13C
:1005A000002408E002A8015D16206043584A801824
:1005B0008172601C84B2C02CF4DB182002AB0022D4
:1005C0005B490090072005F087FF00281FD1002419
:1005D0001BE0E217520F1219D21002AB9A5C2046B0
:1005E000E3175B0F1B18DB10DB00E31A1A41D2077D
:1005F000D20F16236343464E9B195B791A43162389
:1006000063439B195A71601C84B2C02CE1DB182033
:1006100002AB0022464918390090072005F05CFF24
:1006200000281FD100241BE0E217520F1219D2102C
:1006300002AB9A5C2046E3175B0F1B18DB10DB0054
:10064000E31A1A41D207920F16236343304E9B19C7
:100650005B791A43162363439B195A71601C84B259
:10066000C02CE1DB012524E0C020009068432F4A24
:10067000C032811802AB0022072005F02DFF0028B0
:1006800015D1002411E0E217920F1219921002AB5B
:100690009B5CE217920F12199210521916267243A0
:1006A0001B4E92195372201D84B2C02CEBDB681CC8
:1006B000C5B2042DD8DB01201E4B0022062100907C
:1006C000072005F009FF32B070BD08B500220621F1
:1006D000104602F0B9FD01200346002206210090D9
:1006E000104602F054FC0621002002F02FFD0022EB
:1006F0000421022002F0A8FD0120034600221BE095
:100700001CED00E000E100E00080044000820440B5
:100710003E0900100E000010190F00000F0000101D
:100720002966000029690000A96A0000696E0000BE
:10073000417200000C00001004210090022002F021
:1007400026FC0421022002F001FD002203211046B4
:1007500002F07AFD0120034600220321009010469A
:1007600002F015FC0321002002F0F0FC08BD10B5DA
:100770000446F748006903210843F54908617D21D3
:100780000901F448006805F0FFFF6043401EF0498E
:1007900048614817C206D20E01219140EE4A11600D
:1007A00000BF0121FFF7ACFD10BD08B50620009089
:1007B000EA4800790002E94A527910430146E74BC2
:1007C0005B1C0022072005F087FEFC20E34908702F
:1007D0000721E24803F0E6F9E049C8710821DF4843
:1007E00002F060FE08BD08B50620DC4B5B1C002251
:1007F0000090DB480188072005F01BFE0620D74B40
:10080000083300220090D6480188072005F064FED6
:10081000D3480088801DD349884222DCFA20CF4982
:100820000870EC204870D04800788870DC20C870D0
:10083000CB48008800120871C94800884871002020
:1008400088710721C54803F0ADF9C449C871082172
:10085000C24802F027FEC2480088801DC0490880B7
:1008600002E00020C149087008BD08B502F082FB13
:1008700000220221032002F0E7FC012003460022AF
:1008800002210090032002F082FB0221032002F0EB
:100890005DFC08BD10B51020B54988628863C86347
:1008A000B34840304068C008C000B149403148609A
:1008B00010208860086101221146022002F0C4FC69
:1008C00001220921104602F0BFFC0122042103206D
:1008D00002F0BAFC01220521022002F0B5FC01223F
:1008E0000521032002F0B0FC01220721002002F0C4
:1008F000ABFC01221146022002F09BFC01220921DF
:10090000104602F096FC01220421032002F091FC23
:1009100001220521022002F08CFC01220521032086
:1009200002F087FC01220721002002F082FC10BDAA
:1009300008B5FFF76CFC8F4800688F4908438D4964
:1009400008604B20C00102F047FD012005F040FB8C
:10095000FFF73CFD002089490870FFF780FDFFF795
:1009600084FFFFF797FF01221146032002F06CFC81
:1009700001220321084602F067FC7D488030806830
:10098000C008C0007A49803188600846C06AC00843
:10099000C000C86201220321084602F04AFC7849DF
:1009A000012002F0C0F801211220FFF7A9FC02216A
:1009B0001320FFF7A5FC012002F090F80120674BFF
:1009C000002201460090072005F086FD002803D193
:1009D0006248007864490870FA2060490870EC2089
:1009E0004870614800788870FE20C8700120087146
:1009F00004204871802088710721584803F0D2F8FC
:100A00005649C8710821554802F04CFDFFF75DFEBC
:100A10001020FFF7ACFCFFF723FC08BD10B5B2B007
:100A2000C020009057480078C01CC0225043564A4E
:100A3000811802AB0022072005F04EFD002818D1D6
:100A4000002414E002A8015D162060434F4A80187C
:100A5000C1701620604311464018C078FF2804D1A9
:100A60000021162060438018C170601CC4B2C02CE5
:100A7000E8DB32B010BD10B5B2B0002408E016209B
:100A8000604342494018C07802A90855601CC4B2AE
:100A9000C02CF4DBC02000903A480078C01CC02273
:100AA0005043394A811802AB0022072005F0C1FCEF
:100AB00032B010BD10B5B2B0022031AB00223249C5
:100AC00012390090072005F007FD00283FD130A81B
:100AD0004079FF285ED1C02001AB00222C49009054
:100AE000072005F0F9FC00280CD1002408E001A83B
:100AF000015D16206043254A8018C171601CC4B294
:100B0000C02CF4DBC02000901E480078801CC0225E
:100B100050431D4A811801AB0022072005F0DCFC80
:100B20000028D3D1002410E001A8015D1620604305
:100B3000164A8018417030A80079322148431621A6
:100B4000614389188882601CC4B2C02CECDB9FE032
:100B500000E000E00400001000E100E0C008001028
:100B600026000010FF7F000024000010A7010010E5
:100B70000040044080800440C00701009001001044
:100B8000006CDC020C000010290F00003E09001070
:100B9000296C000030A84079802825D1C020009021
:100BA000B3480078401CC0225043B24A811801ABC0
:100BB0000022072005F090FC002869D0002410E0F6
:100BC00001A8015D16206043AB4A8018417030A82F
:100BD0000079322148431621614389188882601CBC
:100BE000C4B2C02CECDB53E030A84079812826D178
:100BF00030A80079A1490870C02000909C48007876
:100C0000801CC02250439B4A811801AB0022072060
:100C100005F062FC00283BD000240DE001A8015D36
:100C200016206043944A80184170022116206043C8
:100C300080188182601CC4B2C02CEFDB28E030A891
:100C400040798B490978884222DAC020009030A888
:100C50004079C0225043874A811801AB0022072007
:100C600005F03AFC002411E001A9601C095C162083
:100C70006043814A8018417030A80079322148438E
:100C80001621614389188882601CC4B2C02CEBDB3A
:100C9000FFF7C4FE32B010BD10B5794800780128C6
:100CA0001DDD01221146022002F0C3FA01220921B2
:100CB000104602F0BEFA01220421032002F0B9FA24
:100CC00001220521022002F0B4FA012205210320AD
:100CD00002F0AFFA01220721002002F0AAFA6948C7
:100CE000C06B2021084000281DD06748C06B02213E
:100CF0000840002817D06348C06B10210840002826
:100D000011D06148C06B2021084000280BD05F48FB
:100D1000C06B80210840002805D05D48C06B890069
:100D20000840002802D101205549087010BD10B5B7
:100D3000002100200FE0162242434F4BD218927838
:100D4000D343162242434C4C12195278D2439A187C
:100D50005118421CD0B24028EDDB4E4A91420CD1D2
:100D60004D4A127802231A40022A12D1454AD26B08
:100D700020239A43434BDA630BE0474A127802235D
:100D80001A40002A05D1404AD26B20239A433E4B99
:100D9000DA63002140200FE016224243364BD2187E
:100DA0009278D34316224243334C12195278D243DD
:100DB0009A185118421CD0B28028EDDB354A914276
:100DC0000CD1354A127804231A40042A12D12E4A33
:100DD000D26B02239A432C4BDA630BE02E4A127833
:100DE00004231A40002A05D1284AD26B80239A4353
:100DF000264BDA63002180200FE0162242431E4B6F
:100E0000D2189278D343162242431B4C12195278BF
:100E1000D2439A185118421CD0B2C028EDDB1D4AAB
:100E200091420CD11C4A127808231A40082A12D188
:100E3000144AD26B10239A43124BDA630BE0164A22
:100E4000127808231A40002A05D1114AD26B9B015F
:100E50009A430F4BDA63002110BD10B5FFF768FD10
:100E6000FFF728FE01F012FD03F0D9FB002010BDB2
:100E70000C000010290F00003E09001010000010A7
:100E800021000010C03F0350C03F0250C03F00503F
:100E9000C03F01500080FFFFAB0100100146F74842
:100EA0008078FF2827D0F548827816204843F44BF5
:100EB000C018407B824205D1F048807880221040E3
:100EC000802818D0ED48807880221040802814D0E7
:100ED00016204843EA4A8018407B80221040802830
:100EE0000BD0E648807816224A43E54BD218527B55
:100EF0001040002801D0012070470020FCE7014687
:100F000016204843DE4A8018007BDC4A5278904223
:100F100003D0DA484078002801D101207047002032
:100F2000FCE7F7B582B005460E46002D04D0002E32
:100F300002D00498002801D105B0F0BD002414E0CF
:100F40002046FFF7DCFF00280DD02046FFF7A6FF64
:100F5000002808D0297916206043C94A8018C07833
:100F60000818287103E0601CC4B2C02CE8DB00BF85
:100F700028795F2800DDDFE7C02000902879C022B3
:100F80005043C04A811833460022072005F0A4FAD6
:100F9000002800D0D0E7A879000269790843871CAF
:100FA000B948874200D90746002456E0305D002842
:100FB0004BD02046FFF7A3FF002846D02046FFF77E
:100FC0006DFF002841D016206043AD49401880785D
:100FD00000283AD01620604340188078315D88425E
:100FE00033D016206043A6494018808A012818D0C3
:100FF000162060434018817816206043A04A80186C
:1010000040780818162161438918897C48431621C5
:1010100061438918097D4843C1B216206043801896
:101020008170315D16206043954A8018417016200A
:101030006043801887822979162060438018C17127
:1010400001211620604380184182162060438C499C
:10105000401840783055601CC4B2C02CA6DBC020BC
:1010600000908A480078801CC0225043854A81182D
:1010700033460022072005F0DCF9002407E01620A3
:1010800060437F494018C0793055601CC4B2C02C01
:10109000F5DBC020334600227D490090072005F093
:1010A000C8F900BF48E7FEB505460F46002414E026
:1010B0002046FFF724FF00280DD02046FFF7EEFE64
:1010C000002808D02979162060436D4A8018C0781E
:1010D0000818287103E0601CC4B2C02CE8DB00BF14
:1010E00028795F2800DDFEBD0024C4E02046FFF71C
:1010F00006FF00284AD02046FFF7D0FE002844D043
:10110000162060435E49401880780028F7D01620EA
:10111000604340188078FF28F1D0A87900026979EF
:101120000843861C5848864200D90646162060436C
:1011300053494018808A012818D01620604340186F
:101140008178162060434E4A80184078081816218E
:1011500061438918897C4843162161438918097DB8
:101160004843C1B21620604380188170FF211620C9
:101170006043434A8018417016206043801886827D
:101180000121162060438018418272E069781620A0
:1011900060433B4A8018407A81426ADB69781620B6
:1011A00060438018407A1830814262DC1620604328
:1011B00011464018407AFF285BD004200090A00020
:1011C000344A811801AB0022072005F085F9002878
:1011D0004FD168464079010468468079000208438F
:1011E0006946C97906460E43697816206043244A49
:1011F0008018407A081A1821091A3046C840012878
:1012000037D1A879000269790843861C1E488642B6
:1012100000D906461620604319494018808A0128E3
:1012200018D0162060434018817816206043144A75
:10123000801840780818162161438918897C484332
:10124000162161438918097D4843C1B216206043C5
:1012500080188170FF2116206043094A8018417070
:101260001620604380188682012116206043801872
:101270004182601CC4B2C02C0EDA37E7C0080010EF
:101280003E090010290F0000FFFF00000C000010B5
:10129000296C0000296F000000BF24E7F8B505465F
:1012A0000E461746C02000902879C0225043FE4ABF
:1012B000811833460022072005F00EF9002815D1C9
:1012C000002411E02046FFF71AFE00280AD020462D
:1012D000FFF7E4FD002805D016206043F3494018CD
:1012E00040783055601CC4B2C02CEBDBC0200090AD
:1012F0002879C0225043EC4A811833460022072047
:1013000005F097F8F8BDF8B505460E46A879000235
:1013100069790843871CE648874200D90746C02000
:101320000090E4480078801CC0225043DE4A8118B7
:1013300033460022072005F0CFF800283ED10024D4
:101340003AE02046FFF7DBFD002833D02046FFF7C8
:10135000A5FD00282ED016206043D4494018808A6D
:10136000012818D016206043401881781620604369
:10137000CE4A801840780818162161438918897C64
:101380004843162161438918097D4843C1B216209C
:10139000604380188170315D16206043C34A801815
:1013A0004170162060438018878201211620604317
:1013B00080184182601CC4B2C02CC2DBF8BDF8B5F5
:1013C00007460D46C0200090BA480078401CC02255
:1013D0005043B54A81182B460022072005F07CF8BF
:1013E00000283ED100243AE02046FFF788FD00287F
:1013F00033D02046FFF752FD00282ED01620604340
:10140000AA494018808A012818D016206043401845
:10141000817816206043A54A801840780818162164
:1014200061438918897C4843162161438918097DE5
:101430004843C1B21620604380188170295D162090
:1014400060439A4A80184170162060438018868253
:1014500001211620604380184182601CC4B2C02C58
:10146000C2DBF8BDF8B505460E46A87900026979D9
:101470000843871C8E48874200D90746C020009049
:101480008C480078801CC0225043874A811833461C
:101490000022072005F020F800283ED100243AE081
:1014A0002046FFF72CFD002833D02046FFF7F6FC3E
:1014B00000282ED0162060437C494018808A0128DD
:1014C00018D0162060434018817816206043774A70
:1014D000801840780818162161438918897C484390
:1014E000162161438918097D4843C1B21620604323
:1014F00080188170315D162060436C4A80184170FD
:1015000016206043801887820121162060438018CE
:101510004182601CC4B2C02CC2DBF8BDF8B50646DF
:101520000F461546032000022B4600226249009018
:10153000072004F0D1FF002835D1002428E0204600
:10154000FFF7DDFC002814D02046FFF7A7FC002899
:101550001CD07078A1006854B179A000401C2954B7
:101560007179A000801C29543179A000C01C295435
:101570000CE0FF20A10068540021A000401C295469
:10158000A000801C2954A000C01C2954601CC4B2B7
:10159000C02CD4DB032000022B46002246490090D9
:1015A000072004F046FFF8BDF8B506460F4614467E
:1015B00000250EE0FF20A90060540021A800401C77
:1015C0002154A800801C2154A800C01C2154681C70
:1015D000C5B2C02DEEDB03200002234600223649AF
:1015E0000090072004F025FFF8BDF8B505460E462B
:1015F0001746002412E02046FFF781FC00280BD09C
:101600002046FFF74BFC002806D0162060432749F0
:101610004018C079287103E0601CC4B2C02CEADB1A
:1016200000BFC02000902879C02250431E4A811874
:1016300033460022072004F04FFF002815D1002474
:1016400011E02046FFF75BFC00280AD02046FFF798
:1016500025FC002805D01620604314494018407826
:101660003055601CC4B2C02CEBDBC0200090287940
:10167000C02250430C4A811833460022072004F050
:10168000D8FEF8BDF8B507460D46C02000900948C1
:101690000078C0225043044A81182B4600220720BC
:1016A00004F01AFF002809E0290F00003E0900108D
:1016B000FFFF00000C000010296F00003ED1002445
:1016C0003AE02046FFF71BFC002833D02046FFF706
:1016D000E5FB00282ED016206043F8494018808A88
:1016E000012818D0162060434018817816206043E6
:1016F000F24A801840780818162161438918897CBD
:101700004843162161438918097D4843C1B2162018
:10171000604380188170295D16206043E74A801875
:101720004170162060438018868201211620604394
:1017300080184182601CC4B2C02CC2DBF8BDF0B579
:1017400085B0044600258AE02846FFF7D8FB00282C
:101750007ED016206843D949401880796179884243
:101760007BD10020002878D0E420E0701620684368
:10177000D2494018807B8007800F012804D00228BE
:101780000DD0032821D115E0CD4FCE4ECE4802908A
:10179000CE480390CE480190CE48009017E0CE4F3F
:1017A000CE480290CE4ECF480390CF480190CF480C
:1017B00000900CE0CE4FCF480290CF4ECF48039020
:1017C000CF480190CF48009001E005B0F0BD00BFC8
:1017D00000E000BF38780028FBD161791622514320
:1017E000B64A8918C97A4902FF31A13188B20199F4
:1017F000884700E000BF38780028FBD102980078C5
:1018000000280DD00098804703980078022805D161
:101810003078BD49085CC043207101E03078207108
:10182000217916206843A54A801841702179162035
:10183000684380188170162068431146401840782C
:10184000A0710721204602F0ADF9E071082100E007
:1018500003E0204601F026FE04E0681CC5B2C02D5E
:1018600000DA71E700BF00BFAFE7F8B505460E46E6
:10187000174600242DE02046FFF741FB002826D024
:101880002046FFF70BFB002821D0162060438B4930
:101890004018807900281AD11620604340184079FA
:1018A000C007C00F002812D1E220E8701620604364
:1018B0004018C07968710020A8710721284602F0FD
:1018C00071F9E8710821284601F0ECFD03E0601C85
:1018D000C4B2C02CCFDB00BFF8BDF8B505460F463B
:1018E000287981004018861C8848864200D906461F
:1018F0006879FF286ED1002469E02046FFF7FFFADF
:10190000002862D02046FFF7C9FA00285DD01620D3
:1019100060436A49401840794106490E16206043E9
:10192000664A801841711620604311464018808A2B
:10193000012817D016206043401881781620604394
:10194000801840780818162161438918897C48431B
:10195000162161438918097D4843C1B216206043AE
:1019600080188170A97916206043544A80188078C5
:1019700081422ADDA9791620604380184170162122
:10198000614389184A78162161434C4BC9188978FC
:10199000511A71430846FE2104F0F6FE81B216206A
:1019A0006043464A801881820121162060438018D6
:1019B00041821620604311464018808A022804DACA
:1019C00002211620604380188182601CC4B2C02CA2
:1019D00093DBA3E000249DE02046FFF790FA002867
:1019E0006BD02046FFF75AFA002866D016206043D5
:1019F000324940188079697988425ED11620604367
:101A00002E49401840794106490E162060432B4A62
:101A1000801841711620604311464018808A0128C1
:101A200017D0162060434018817816206043801834
:101A300040780818162161438918897C484316218B
:101A400061438918097D4843C1B21620604380185C
:101A50008170A97916206043184A801880788142E5
:101A60002ADDA97916206043801841701621614350
:101A700089184A7816216143104BC9188978511A80
:101A800071430846FE2104F07FFE81B216206043B8
:101A90000A4A801881820121162060438018418201
:101AA0001620604311464018808A022804DA022179
:101AB00016206043801881822FE029E03E09001043
:101AC0009A010010980100109B010010990100106C
:101AD0005B370000FF360000D2010010D301001078
:101AE000D0010010D1010010395700001758000034
:101AF000BE010010BF010010BC010010BD010010AC
:101B0000B54D0000934E0000986A0000FFFF0000F2
:101B1000601CC4B2C02C00DA5EE700BFF8BDF8B5A7
:101B200005460F46287981004018861CFE488642EB
:101B300000D9064600246DE02046FFF7E0F90028B2
:101B400066D02046FFF7AAF9002861D06879FF28FF
:101B500007D016206043F54940188079697988429A
:101B600056D116206043F1494018808A012818D0C8
:101B7000162060434018817816206043EB4A801895
:101B800040780818162161438918897C484316213A
:101B900061438918097D4843C1B21620604380180B
:101BA000817016206043E149401840798021084344
:101BB00016216143DD4A89184871A97916206043CE
:101BC000801841700121162060438018418216213F
:101BD000614389188A7816216143D44BC918497822
:101BE000511A71430846FE2104F0CEFD81B2162041
:101BF0006043CE4A80188182162060431146401807
:101C0000808A022804DA022116206043801881822B
:101C1000601CC4B2C02C8FDBF8BDF8B505460E467B
:101C2000002459E02046FFF76AF9002852D02046E8
:101C3000FFF734F900284DD016206043BB49401807
:101C400080796979884202D06879FF2842D11622CA
:101C50006243B64BD218527816236343B34FDB1955
:101C60009B78D21A16236343DB195B8A5B1C5A43A9
:101C70001046162262433B46D218918A04F08EFD2C
:101C8000162161433A46891889784018C1B2162056
:101C90006043801881701620604311464018807898
:101CA000002804D10121162060438018817016207D
:101CB00060439E4940188178162060439B4A8018F3
:101CC0004170012116206043801841821620604334
:101CD00080188182601CC4B2C02CA3DBF8BDF0B5B3
:101CE00005460E461746002449E02046FFF707F94F
:101CF000002842D02046FFF7D1F800283DD016201A
:101D000060438A49401880796979884202D06879AD
:101D1000FF2832D11620604384494018808A012868
:101D200018D01620604340188178162060437F4AFF
:101D3000801840780818162161438918897C484327
:101D4000162161438918097D4843C1B216206043BA
:101D500080188170A97916206043744A80184170F8
:101D6000287981004018801C1621614389188882D7
:101D700001211620604380184182601CC4B2C02C2F
:101D8000B3DBF0BDF0B505460F4600244AE020461F
:101D9000FFF7B5F8002843D02046FFF77FF800286A
:101DA0003ED01620604361494018807969798842A5
:101DB00002D06879FF2833D1162060435B49401870
:101DC000808A012818D01620604340188178162098
:101DD0006043564A801840780818162161438918D4
:101DE000897C4843162161438918097D4843C1B263
:101DF0001620604380188170287932214843861C60
:101E0000A97916206043494A80184170B01C1621F8
:101E1000614389188882012116206043801841821D
:101E2000601CC4B2C02CB2DBF0BDF0B505460F4655
:101E300028793F494843861C3B48864200D90646DC
:101E4000002445E02046FFF75AF800283ED02046FF
:101E5000FFF724F8002839D0162060433349401892
:101E600080796979884202D06879FF282ED11620BE
:101E700060432E494018808A012818D016206043FC
:101E80004018817816206043284A80184078081846
:101E9000162161438918897C4843162161438918BA
:101EA000097D4843C1B21620604380188170A9792A
:101EB000162060431D4A8018417016206043801828
:101EC000868201211620604380184182601CC4B2C2
:101ED000C02CB7DBF0BDF8B504460E46174600250A
:101EE00031E02846FFF70BF800282AD0A078FF2819
:101EF00021D0A178162068430C4A8018407B81428B
:101F000004D1A07880210840802814D0A0788021B6
:101F10000840802815D0A07816216943034A891803
:101F2000497B0843002805E0FFFF00003E09001040
:101F3000B80B000005D0617916206843F84A801874
:101F4000C170681CC5B2C02DCBDBFEF794FDF8BD97
:101F500070B504460D46164600236DE01846FEF7A0
:101F6000CEFF002866D0A078FF281AD0A1781620CE
:101F70005843EB4A8018407B814204D1A0788021ED
:101F8000084080280DD0A07880210840802851D0BA
:101F9000A07816215943E24A8918497B0843002852
:101FA00048D016205843DE4940188079617988422C
:101FB00002D06079FF283DD116205843D8494018F7
:101FC000808A012818D0162058434018817816209E
:101FD0005843D34A80184078081816215943891865
:101FE000897C4843162159438918097D4843C1B269
:101FF000162058438018817016205843C84940184D
:10200000407801280AD01620584340184078401ED6
:10201000C1B216205843C24A801841702079801CF2
:1020200016215943BE4A8918888201211620584337
:1020300080184182581CC3B2C02B8FDB70BDF0B535
:1020400005460E461746002454E02046FEF757FF8B
:1020500000284DD02046FEF721FF002848D016204A
:102060006043AF49401880796979884202D0687925
:10207000FF283DD116206043A9494018808A0128D5
:1020800018D0162060434018817816206043A44A77
:10209000801840780818162161438918897C4843C4
:1020A000162161438918097D4843C1B21620604357
:1020B0008018817016206043994940184078FF28A5
:1020C0000AD01620604340184078401CC1B2162048
:1020D0006043934A801841702879801C162161431F
:1020E0008F4A891888820121162060438018418216
:1020F000601CC4B2C02CA8DBF0BDF8B505460E4686
:102100002879082802D009287BD17BE08548C06B5C
:10211000202188438349C8638348C06B802188435A
:102120008149C8638148C06B0121490288437F49C6
:10213000C863142001F014FA01221146022001F0B4
:1021400078F801220921104601F073F801220421D8
:10215000032001F06EF801220521022001F069F848
:1021600001220521032001F064F80122072100204B
:1021700001F05FF86E4801F0F0FA6D4803F0DCFA08
:102180006B4802F017FE00BF6A4800780028FBD1B8
:10219000FF20F53001F0E4F907240DE06648C06B3C
:1021A000022148406449C863FEF774F8FF20F53007
:1021B00001F0D6F9601EC4B2002CEFD101F053FF3C
:1021C000012002F038F903F0E8FC022002F033F9B4
:1021D00003F021F8032002F02EF9FEF740F9FE206B
:1021E000E87001202871042068718020A8710721FF
:1021F000284601F0D7FCE8710821284601F052F981
:102200001FE01DE06879012817D1002403E0FF20BA
:102210003055601CC4B2C02CF9DB00240BE0C02098
:1022200000906043454A811833460022072004F09D
:1022300000F9601CC4B2042CF1DBFEF710F900E0D9
:1022400000BF00BFF8BD00BF3D483E49C860BFF3B6
:10225000408F00BF00BFFEE738B504460D46FA20A8
:102260002070EC20607038480078A070F920E07091
:102270000120009020790002627910430146A31DDD
:102280000022072004F028F90721204601F08AFCEB
:10229000E0710821204601F005F938BD38B5044643
:1022A0000D4601200090207900026279104301461A
:1022B000A31D0022072004F0BCF8002802D1E07919
:1022C000401CE071F920E0700821204601F0EAF896
:1022D00038BD70B504460D46DE20E070E079401C44
:1022E000E0710821204601F0DDF80120174908704F
:1022F00070BD70B504460D46DC20E070E079401CEE
:10230000E0710821204601F0CDF8207900026179C2
:1023100008430F49088001200C49087070BD000077
:102320003E090010C03F0250C03F0050C03F015066
:1023300080FE0000BE010010C03F0350296600006F
:102340000400FA0500ED00E024000010A7010010D1
:1023500026000010FEB50446CA20E0706079162100
:102360004843D4494018807B8007800F012804D05F
:1023700002280CD003281ED113E0CF4DCF4ED048F9
:102380000190D0480290D04FD04800901FE0D04D2F
:10239000D0480190D04ED1480290D14FD148009002
:1023A00015E0D14DD1480190D14ED2480290D24F84
:1023B000D24800900BE00020A0710721204601F0D8
:1023C000F1FBE0710821204601F06CF8FEBD00BF72
:1023D0002079012806D0022825D0032846D00428D9
:1023E0007ED166E000BF28780028FCD161791622F2
:1023F0005143B04A8918C97A4902FF31913188B2F4
:10240000B84700BF28780028FCD100988047307872
:10241000A0710721204601F0C5FBE071082120468C
:1024200001F040F86BE000BF28780028FCD161790A
:10243000162251439F4A8918C97A4902FF319231C5
:1024400088B2B84700BF28780028FCD100988047A0
:102450003078C007C00FA0710721204601F0A2FB11
:10246000E0710821204601F01DF848E000BF2878FF
:102470000028FCD16179162251438E4A8918C97A05
:102480004902FF31943188B2B84700BF287800284C
:10249000FCD10098804730788007800FA071072119
:1024A000204601F07FFBE0710821204600F0FAFF92
:1024B00025E000BF28780028FCD16179162251431D
:1024C0007C4A8918C97A4902FF31933188B2B847EA
:1024D00000BF28780028FCD100988047307800E0C1
:1024E0000CE0C007C00FA0710721204601F05AFB85
:1024F000E0710821204600F0D5FF00E000BF00BFDA
:1025000000BF63E70279002A16DD0279C12A13DAD7
:10251000B922C270027916235A43664BD218928AA6
:10252000012A07D0027916235A43624BD2185278F7
:10253000427101E000224271704730B502460B46FD
:102540001179491EC8B2162141435A4C0919898A8A
:10255000012918D01621414309198C7816214143CD
:10256000544D491949786118162444436419A47CD0
:102570006143162444436419247D6143CCB216217F
:10258000414349198C705179C943CCB2162141435A
:10259000484D49194C709179891C1624444364199B
:1025A000A18201241621414349194C8230BD70B5E6
:1025B00004460D46207900281BD001280DD00228A2
:1025C00023D160790002A279104301464C4801F002
:1025D0001BFA01204B49087018E060790002A279CB
:1025E00010430146484801F00FFA0120474908709E
:1025F0000CE060790002A27910430146444801F0E2
:1026000003FA01204349087000E000BF00BF70BD1D
:1026100010B5FFB0F1B040480078F52818D100247B
:1026200011E03D48C078E1003C4A515C884208D145
:10263000E000114640186A46C0A9436836489847EA
:1026400005E0601CC4B2364800788442E9DB2DE026
:1026500031480078FA2829D12F484078EC2803D057
:102660002D484078AA2821D12B4880782D49097817
:10267000884203D028488078552817D1002410E0DC
:10268000E0002949085C2449C978884207D1E00064
:1026900025494018C0A942681F48904705E0601CC2
:1026A000C4B2224800788442EADB00BF7FB071B038
:1026B00010BD00003E0900109A01001098010010A2
:1026C0009B010010990100105B370000FF360000ED
:1026D000D2010010D3010010D0010010D101001070
:1026E0003957000017580000BE010010BF0100104C
:1026F000BC010010BD010010B54D0000934E00005C
:10270000F001001056010010F203001057010010F4
:10271000F405001058010010C00800102800001037
:10272000D000001024000010D4000010240100107C
:10273000F0B50C46059D002100BF08E01420484379
:10274000584F385C002800D103E0481CC1B20A2968
:10275000F4DB00BF0A2901D1FF20F0BD002C01D11C
:10276000FF20FAE7142048434E4FC6197460B26048
:10277000357000203061F3600846EEE701460A2913
:1027800000D3704714224A43464BD01802780123E5
:102790001A430270444BC2681B68D218026100BF22
:1027A000EFE70A2800D37047142242433D4BD1186B
:1027B0000A78520852000A7000BFF4E70A2800D3D2
:1027C000704714224243374BD11800220A704A60E6
:1027D00000BFF5E7344A1268521C334B1A600021DF
:1027E0001DE014224A432F4BD0180278D207D20F93
:1027F000002A12D02C4B02691B689A420DD1027834
:1028000004231A430270027802231A40002A04D0DB
:10281000254BC2681B68D21802614A1CD1B20A2932
:10282000DFDB704730B502460020142353431D4CB4
:1028300019191D4C0B692468A34205D91A4D0C695E
:10284000CB682D68641B181B30BD70B5002516E0E1
:1028500014206843134944182078042108400028B4
:102860000BD0207802210840022803D020784008AD
:10287000400020706168A0688847681CC5B20A2DB6
:10288000E6DB70BD10B5FFF7A5FF10BD10B5012048
:10289000FDF76DFF05480069012108430349086100
:1028A00010BD0000F80700102801001000E000E053
:1028B00042490968491C414A116041490968491C5B
:1028C0003F4A11603F4909784906490E002904D062
:1028D0003D490978491C3C4A11703C490978002956
:1028E00004D03A490978491C384A11707047384970
:1028F000C96B08225140364AD163704708B502209F
:10290000142300223349009033A0FFF711FF34490C
:10291000086008460068FF2803D008460068FFF7F3
:102920002DFF0220142300222E4900902EA0FFF735
:10293000FFFE2F49086008460068FF2803D00846BC
:102940000068FFF71BFF0220FF23F533002229490F
:10295000009029A0FFF7ECFE2A49086008460068AD
:10296000FF2803D008460068FFF708FF08BD10B530
:10297000044624480068FF2801D1FFF7BFFF224822
:102980000068FFF7FBFE10BD38B504461448006828
:10299000FF2803D01C480068FFF703FF00202346F0
:1029A00002461A4900901AA0FFF7C2FE0546FF2D05
:1029B00002D02846FFF7E2FE38BD000018000010E4
:1029C0001C00001022000010230000102100001045
:1029D000C03F0350B1280000545F32306D730000D7
:1029E0002C0100102B6600006B65797363616E002B
:1029F00030010010EF2800004C6564426C696E6B7A
:102A00000000000034010010380100106F290000A0
:102A100044656C61795374617274000070B504464A
:102A20000D46002C1BD10220E14948600020C860FF
:102A30007D21C900DF48006803F0A6FE6843DC4939
:102A40008861FF200860042048610120486000BFC1
:102A5000D7484068C007C00F0028F9D11CE0012CFE
:102A60001AD10220D44948600020C8607D21C900E5
:102A7000D048006803F088FE6843CF498861FF2092
:102A80000860042048610120486000BFCA484068CF
:102A9000C007C00F0028F9D170BDC7480068C00743
:102AA000C00F002819D00120C3490860C34800782E
:102AB000401CC2490870C2480078012808D1C148AA
:102AC0000068032804D90020BD49087000BFFEE754
:102AD000BC480068401CBB4908607047002803D10F
:102AE0000121B34A516002E00121B34A51607047AD
:102AF000002803D10021AE4A516002E00021AE4A15
:102B0000516070470146002906D1A94A5068022247
:102B10001043A74A506005E0A74A506802221043BC
:102B2000A54A5060704770B504460D46002C16D17A
:102B3000A5480068012149020843A3490860002014
:102B4000A2490860A2490860994885610020984917
:102B5000886203204861122000F022F924E0012C51
:102B600022D199480068A102084397490860994812
:102B70004069C008C0009749486108464069022181
:102B800008439449486100209349086093490860CC
:102B90008948856105208849886200208862032071
:102BA0004861132000F0FCF870BD30B505460C46B6
:102BB00013462846FFF79CFF012D66D18248006826
:102BC000A902084380490860B320C00018437A492D
:102BD000C863D807C00F00280ED07E484038C06BAD
:102BE000C008C0007B494039C8630846C06B032158
:102BF000084378494039C8630220184000280BD0A8
:102C000074480068C008C00072490860084600683F
:102C1000032108436F4908600420184000280BD0A6
:102C20006C480069C008C0006A490861084600692C
:102C300003210843674908610820184000280BD089
:102C400064484069C008C00062494861084640695C
:102C5000022108435F494861082018435649403122
:102C600048635F4804600068534948625C480068F4
:102C7000400888615A4800684008C86158480068A0
:102C8000400808620815486158E04F480068012173
:102C9000490208434C490860CB20C000184344490E
:102CA000C8630220184000280BD04A48806AC00838
:102CB000C000484988620846806A022108434549A5
:102CC00088620420184000280ED0424880380069ED
:102CD000C008C0003F4980390861084600690221E8
:102CE00008433C49803908610820184000280ED06C
:102CF00038484038406BC008C00036494039486306
:102D00000846406B03210843324940394863082094
:102D10001843274940314863324804600068244919
:102D200048623048006888612E4800684008C861E1
:102D30002C480068400808620815486130BD00282A
:102D400016D0002906D0012907D0022908D003296E
:102D50000CD108E0184B9A6109E0174BDA6106E0E4
:102D6000154B1A6203E0144B5A6200E000BF16E0F4
:102D7000002906D0012907D0022908D003290CD147
:102D800008E00B4B9A6109E0094BDA6106E0084B59
:102D90001A6203E0064B5A6200E000BF00BF7047B2
:102DA000C206D20E012191400F4A11607047000007
:102DB0000040014008000010008001402000001089
:102DC000A7010010AC010010808004403C010010FD
:102DD00044010010804004404001001048010010F0
:102DE000500100104C01001000E100E0FA49886930
:102DF0004021014040290AD1F8490978491CF74A85
:102E00001170F549C96940221143F34AD161082183
:102E1000014008290AD1F2490978491CF04A117089
:102E2000ED49C96908221143EB4AD1617047002876
:102E300006D001280CD0022812D0032820D117E098
:102E4000E54AD26901238B401A43E34BDA6118E06B
:102E5000E44AD26901238B401A43E24BDA6110E065
:102E6000E14AD26901238B401A43DF4BDA6108E063
:102E7000DE4AD26901238B401A43DC4BDA6100E061
:102E800000BF00BF704710B502460020002A06D0E0
:102E9000012A0DD0022A14D0032A24D11AE0CE4BE5
:102EA0009B6901248C402340002B00D001201BE0B3
:102EB000CC4B9B6901248C402340002B00D0012087
:102EC00012E0C94B9B6901248C402340002B00D0A9
:102ED000012009E0C54B9B6901248C402340002B55
:102EE00000D0012000E000BF00BF10BD10B5C048F9
:102EF0000068401CBE49086001210846FFF7C3FF77
:102F00000446002C08D0BB480068401CB949086042
:102F100001210846FFF78BFF10BDB34988691021D6
:102F2000014010290AD1B4490978491CB24A1170EC
:102F3000AD49C96910221143AB4AD1617047AB4911
:102F4000886904210140042911D1AC49C96B0422CC
:102F500011404901AA4A1170A449C96904221143C8
:102F6000A24AD161A6490978491CA54A117000BF3F
:102F700000BF7047A348006840210843A14908608A
:102F80001F2001218140A04A116000BF704770B529
:102F9000049C002806D0012838D002286AD00328D3
:102FA0007BD19CE0002A18D18B4D6D6801268E40A4
:102FB000B543894E7560002B07D13546AD680126B3
:102FC0008E40B543844EB5600EE0834DAD6801265A
:102FD0008E403543804EB56006E07F4D6D6801261A
:102FE0008E4035437C4E7560002C07D17A4DED68DC
:102FF00001268E40B543784EF56006E0764DED68CB
:1030000001268E403543744EF5609DE0002A18D1AC
:10301000744D6D6801268E40B543724E7560002B6D
:1030200007D13546AD6801268E40B5436D4EB5607B
:103030000EE06C4DAD6801268E403543694EB5609B
:1030400006E0684D6D6801268E403543654E75601B
:10305000002C07D1634DED6801268E40B543614ECB
:10306000F56006E05F4DED6801268E4035435D4E0C
:10307000F56069E0002A19D15B4D6D6801268E402C
:10308000B543594E7560002B08D13546AD68012611
:103090008E40B543544EB5600FE054E0524DAD68DC
:1030A00001268E403543504EB56006E04E4D6D68AA
:1030B00001268E4035434C4E7560002C07D14A4D99
:1030C000ED6801268E40B543474EF56006E0464D5B
:1030D000ED6801268E403543434EF56034E0002A0A
:1030E00018D1424D6D6801268E40B5433F4E756044
:1030F000002B07D13546AD6801268E40B5433B4EC7
:10310000B5600EE0394DAD6801268E403543374E2F
:10311000B56006E0354D6D6801268E403543334E6F
:103120007560002C07D1314DED6801268E40B54306
:103130002E4EF56006E02D4DED6801268E4035439C
:103140002A4EF56000E000BF00BF70BD002806D029
:1031500001280CD0022812D0032820D117E01E4AE3
:10316000126901238B401A431B4B1A6118E01D4A58
:10317000126901238B401A431A4B1A6110E01A4A54
:10318000126901238B401A43174B1A6108E0174A52
:10319000126901238B401A43144B1A6100E000BFEF
:1031A00000BF7047002806D001280CD002282DD07F
:1031B00003283BD132E0084A126901238B409A432D
:1031C000054B1A6133E0074A126901238B409A4389
:1031D000044B1A612BE0000000800050AA0100108F
:1031E000A8010010008001500080025000800350B0
:1031F0006401001074010010A9010010C03F0350C9
:10320000220000108080044000E100E02A4A126998
:1032100001238B409A43284B1A6108E0274A13691F
:1032200001228A409343254A136100E000BF00BF9A
:10323000704730B513468B408400214D2D59012431
:103240008C40A4002B5130BD30B5002A11D0830032
:103250001B4CE3580124E4031B191B6801248C4018
:1032600023438400164D2C590125ED036419236076
:1032700010E08300124CE3580124E4031B191B687F
:1032800001248C40A34384000D4D2C590125ED03EE
:103290006419236030BD30B502460020002394003D
:1032A000074D2D5901248C40A4002B5901248C403A
:1032B0009C4200D1012030BD0080025000800350AC
:1032C00078690000F0B500BF974B9B68D8B24010FA
:1032D0004007400F032822D1934B5B69D9B29E234C
:1032E0000B40002B05D0914B19608F4B1B68DCB253
:1032F000F0BDCB07DB0F002B6CD08B4D2D68EEB2F1
:103300008B4D2B685D1C8A4F3D608A4DEE543B46C9
:103310001B68102B5ED100233D462B605AE002282B
:1033200035D1854B1B78002B13D17F4B1B68DAB24C
:10333000FA2A03D0F52A01D0FC2A20D17C4D2B6833
:103340005D1C7B4E35607D4DEA5401237A4D2B7018
:1033500015E0754D2D68EEB2754D2B685D1C744FF0
:103360003D60764DEE543B461B68754D2D78AB4263
:1033700005D10123734D2B7000236F4D2B706C4BC7
:103380001B68102B26D10023694D2B6022E00628F4
:103390000AD1664B1B68FF2501352B43634D2B601B
:1033A0000023654D2B7015E0012813D15E4B5B693E
:1033B000D9B220230B40002B03D00123624D2B6098
:1033C00008E00023604D2B60604BDB6B0825AB43AE
:1033D0005E4DEB6300BF8BE7F8B5044601205A4908
:1033E0000860002052490860152001218140584A98
:1033F000116000BF5748406AC008C0005549486284
:103400000846406A01210843524948620846806ADA
:10341000C008C00088620846806A012108434D49FF
:1034200088624D4800680121090308434A49086041
:103430000120886183203C49C8604748866931463D
:103440004648006803F0A0F907092146384603F012
:103450009BF90546280A34494860E8B20860032011
:10346000C86087208860072088600846466900BFDA
:103470002D484069602108406028F9D101E02A48C0
:10348000066829484069C007C00F0028F7D11520F9
:10349000012181402E4A803A116000BF0720224955
:1034A0004860F8BD70B505460C462848C06B082139
:1034B00088432649C863032000F052F80EE000BF9D
:1034C00021480068C007C00F0028F9D028781649A5
:1034D000086000201C4908606D1C641E002CEED1A1
:1034E00000BF11484069402108400028F9D0174822
:1034F000C06B082108431549C86370BD1349C96BE7
:1035000008229143114AD1630749086000BF064968
:103510004969402211400029F9D00C49C96B0822A1
:1035200011430A4AD16370470080004080010010B7
:103530008C010010C008001091010010D408001088
:10354000920100109001001084010010C03F035050
:1035500080E100E0804004408080044008000010CA
:10356000014606E04B22920100E0521E002AFCD1E7
:10357000491E0029F6D17047F8B500230021002428
:1035800017E0A000F84FC019807800901120471A6A
:103590000098B8400343491CA000F34FC019C078FD
:1035A0006C2805D11120471A0098B8400343491CE4
:1035B000641C122905D2EC484030007A401CA0421D
:1035C000DFD800210CE007258D4018462840002850
:1035D00003D018462840A84201D10120F8BD491C5B
:1035E0001029F0D30022002112E05004020C102018
:1035F000401A1F46C740BE07B60F002E01D0032E4B
:1036000001D10120EAE7012E01D101200243891CEA
:103610001229EAD3FF2001301040002801D10120F7
:10362000DCE7D24F3A700020D8E7024600200F2195
:103630000FE001238B401340002B04D040004000DA
:103640000123184303E040000123184340004B1EB0
:1036500059B20029EDDA704701460020CA05D20DA3
:10366000FF2391339A4205DBCA05D20DFF239E3317
:103670009A4226DDCA05D20DFF23A1339A4204DB0C
:10368000CA05D20D5B1D9A421BDDCA05D20DFF2370
:10369000B1339A4205DBCA05D20DFF23C6339A42E5
:1036A0000FDDCA05D20DB24B9A420AD0A9221202EE
:1036B000914206D0AF4A914203D0BB2212029142FE
:1036C00000D10120704701460020CA05D20DFF231A
:1036D00021339A4206DBCA05D20DFF2381339A4279
:1036E00000DC0120FF2212020A40A5231B029A429D
:1036F00003D0A7221202914200D10120704710B5D9
:1037000099484030007A002803D101209A49087076
:1037100022E095484030007A012803D103209649E1
:10372000087019E000BF01F045FA002801D0002020
:1037300006E0FFF721FF002801D0002000E0012073
:10374000002806D000208D49087002208A490870A0
:1037500002E003208849087010BDF1B5002601275A
:103760000098FFF762FF04460098FFF775FF0546D3
:103770000098FFF7A8FF002800D0022721E000BF33
:103780007F4800780028FBD100BF01207C490870E9
:103790007A4805707B4804607B48C06B40218843B1
:1037A0007949C863002079498860FF20A230886188
:1037B00000208862032048610120486000BF701C1F
:1037C000C6B2BE42DBDBF8BD10B570480068C1B2BE
:1037D000C807C00F002878D001206C4A10606848E4
:1037E000007801280CD16848C06B40221043664A1B
:1037F000D0630020664A10700220614A107002E116
:103800005F480078022824D15E480068C00FC007D6
:10381000002806D05C48C06B402210435A4AD0634F
:1038200005E05948C06B40229043574AD063554841
:1038300000684000534A106055480078401C544AC4
:103840001070104600782028D9D103204C4A1070FF
:10385000D9E04B48007803281ED14B48C06B40226A
:103860001043494AD0634548007800280DD04948A4
:10387000464A906100203D4A107000223A4840308C
:10388000027204203E4A1070BDE043483F4A9061F6
:1038900005203B4A1070B6E039480078042809D169
:1038A0003C48D030394A9061072090620620344A63
:1038B0001070A8E032480078062807D13748334A0C
:1038C000906107202E4A10709DE02AE02C48007875
:1038D00007280CD102202D4A506000209062102051
:1038E00010600020254A1070254A10708BE0244893
:1038F000007808280AD12A48244A90610020906262
:103900001020106005201E4A10707CE01C480078D2
:10391000052878D102201D4A50600020184A1070F6
:1039200071E01020084000286DD00F4A4032107A14
:103930001022164B1A60124A1278062A02D100226F
:103940009A6252E00E4A1278072A3BD1154A0F4B71
:103950009A6100229A6001221A60134A9268002A32
:1039600024D1012223E00000F40800109801001087
:10397000FF01000001B90000990100109B01001037
:103980009A0100109C010010C03F0250004001400D
:10399000B2010010840600003D2F0000B229000093
:1039A000772500006B2700000000015000228300F3
:1039B000FE4C1B199A7000228300E2520822FC4B35
:1039C0001A7012E0FA4A1278082A0ED1F94A92685F
:1039D000002A01D1012200E000228300F34C1B19D0
:1039E0009A70F54AD26A8300E252F04A4032127A63
:1039F000112A07DAED4A4032127A521CD3B2EB4A4E
:103A00004032137200BF10BD70B504460D46618888
:103A1000481CFF2102F0C2FE2088814201D1002013
:103A200070BD6188481C60804900201D4552608837
:103A3000FF2102F0B3FE61800120F1E770B504467A
:103A40000D4620886188884201D1002070BD218800
:103A5000481C20804900201D405A288000212088D1
:103A6000401E4200201D81522088FF2102F096FE58
:103A700021800120EAE7418801807047014600204B
:103A8000CAB2B5231B021A431043704701460020F7
:103A9000FF2212020A40120AB3231B021A431043E8
:103AA000704701460020FF2212040A40120CB12385
:103AB0001B021A431043704710B5A9200002FFF7FC
:103AC0004CFE00BFBA4800780028FBD1FFF717FE74
:103AD000BA480078032801D1FF2010BDB74800780C
:103AE000022802D1B6480078F7E7B44800780128E8
:103AF00001D10020F1E70120EFE710B50446BB201B
:103B00000002FFF72AFE00BFA94800780028FBD179
:103B10003220FFF725FDFFF7F2FDA94800780028C5
:103B20003FD00020A64908706100B722120211435D
:103B3000481CFFF712FE00BF9D4800780028FBD10B
:103B40001420FFF70DFDBB200002FFF706FE00BFAB
:103B5000974800780028FBD11420FFF701FDFFF7FC
:103B6000CEFD6000401C96490978884219D100209A
:103B700093490870AB200002FFF7EFFD00BF8C48AF
:103B800000780028FBD11420FFF7EAFC6102FF3126
:103B9000013188B2FFF7E1FD00BF854800780028B9
:103BA000FBD110BD30B5024600200B4605E015786C
:103BB000521C2C18E0B25C1EE3B2002BF7D1FF249C
:103BC0000134241AE0B230BD08B57E480078FA28E6
:103BD0007DD17C484078EC287FD17A4880787A493A
:103BE0000978884279D17748C078DE2841D004DC52
:103BF000BA2855D0DD2868D13EE0FC280BD0FD283E
:103C000063D170484079002804D1704908700820B9
:103C10006F4908705AE0FCF722FC0120694B9B1C9D
:103C2000002201460090072002F056FC00281FD118
:103C30006448807864490870FE206249C870012099
:103C40000871042048718020887107215D48FFF7C2
:103C5000A9FF5C49C87108215A48FFF723FC0020DE
:103C60005A49087008205A490870002059490880AC
:103C70002CE0FCF79AFD29E0DC205249C870084688
:103C8000C079401CC87108214E48FFF70BFC4D4815
:103C9000007900024B49497908434E49088015E0F4
:103CA000FE204849C870012008710420487107218E
:103CB0004448FFF777FF4349C87108214148FFF79F
:103CC000F1FB03E003E008E0FFE700BF05E03D484B
:103CD0000078FC2801D1FCF786FD08BDF8B500246A
:103CE00002E1162060433C494018017A16206043E7
:103CF000394A8018407881420EDD16206043114613
:103D000040184078002807D0162060434018017AF8
:103D10001620604380184170162060432E494018D9
:103D2000818A162060432C4A8018408A81427DD0C7
:103D300016206043114640184078162161438918C7
:103D40008978884260DD16226243234BD21852786C
:103D500016236343204FDB199B78D21A1623634343
:103D6000DB195B8A5B1C5A431046162262433B46B2
:103D7000D218918A02F012FD162161433A46891841
:103D800089784018C04386B2F0B214490D5C162001
:103D90006043114640180079A84234D01620604391
:103DA0004018C07A4002284381B219E0F40800109C
:103DB0009A010010000001500040014099010010DC
:103DC00098010010C008001024000010A701001086
:103DD00092010010260000103E09001098690000B2
:103DE000162060438018018201211620604311547F
:103DF0001620604311464018408A401C81B21620AC
:103E00006043801841826DE016206043FE494018EF
:103E1000407816216143FC4A89188978884261DA22
:103E200016226243F84BD218927800E047E016233E
:103E30006343F54FDB195B78D21A16236343DB1912
:103E40005B8A5B1C5A431046162262433B46D218DB
:103E5000918A02F0A3FC162161433A4689188978B9
:103E6000081AC04386B2F0B2E8490D5C16206043E0
:103E7000114640180079A84234D0162060434018FB
:103E8000C07A4002284385B2162060434018C07AA9
:103E90004002284381B2162060438018018201212C
:103EA0001620604311541620604311464018408A82
:103EB000401C81B2162060438018418212E0162017
:103EC0006043D1494018417816206043CE4A80189B
:103ED00081700121162060438018418216206043C2
:103EE00080188182601C84B2C02C00DAF9E6F8BD2B
:103EF00010B5C748007801282CD1C34800780028A5
:103F00000AD0C148007C7F2252028118C148FFF7C5
:103F10007BFD0120C0490870C048007800280AD005
:103F2000BE48007C7F2252028118BD48FFF76CFD1D
:103F30000120BC490870BC48007800280AD0BA4863
:103F4000007C7F2252028118B848FFF75DFD0120F6
:103F5000B7490870002482E016206043AA49085C33
:103F600000287AD0162060434018807B8007800F9D
:103F7000012804D002281BD003284BD131E0AD48E2
:103F80000078002813D1A2480078002807D1162015
:103F900060439D4A8018018A9E48FFF735FD012045
:103FA0009D490870002116206043974A115453E040
:103FB000A1480078002813D195480078002807D13F
:103FC00016206043904A8018018A9548FFF71CFD2F
:103FD0000021162060438C4A115401209149087039
:103FE0003AE096480078002813D1894800780028E4
:103FF00007D116206043844A8018018A8B48FFF756
:1040000003FD0021162060437F4A11540120884996
:10401000087021E07E480078002818D10021162081
:104020006043794A1154FF21162060438018417083
:10403000162060438018817001211620604380188B
:104040004182162060438018818205E005E000214E
:10405000162060436C4A115400BF601C84B2C02C0F
:1040600000DA79E710BDF0B585B00020744908701A
:1040700000BF7448FFF771FB00BF00BF6D480078B8
:104080000028FBD17048FFF768FB00BF6948007843
:104090000028FBD10A20FFF763FAA5200002FFF7F2
:1040A0005CFB00BF634800780028FBD100BF674875
:1040B000C06B022188436549C86300255AE004208B
:1040C0000090A800624A811801AB0022072002F08C
:1040D00003FA00284DD1694648790004897909021C
:1040E00008436946C979084304466946087980113E
:1040F00000283ED1C979B522120211430846FFF7C4
:104100002CFB00BF4B4800780028FBD0694689791A
:10411000B322120211430846FFF71FFB00BF4548B8
:1041200000780028FBD069464979B1221202114378
:104130000846FFF712FB00BF3E4800780028FBD07E
:104140004248C06B022148404049C863FFF7B4FCB5
:10415000FF280ED1684600798006800E3849087025
:1041600008460078FFF7C9FC35480078401C344900
:1041700008706D1C402DA2D33448C06B022148400A
:104180003249C863FF20F530FFF7EAF9A1200002A9
:10419000FFF7E3FA2D48C06B022148402B49C86362
:1041A000FF20F530FFF7DCF92A48FFF7D6FA00BF09
:1041B000204800780028FBD1A7200002FFF7CDFAA5
:1041C00000BF1C4800780028FBD12048C06B0221AA
:1041D00048401E49C863402527E100261E4FDEE007
:1041E000F019401C4408B44201D0BC4252D12046D0
:1041F000FFF744FC0090FFF7B0FA00BF0D480078CD
:104200000028FBD1204629E03E09001098690000F3
:10421000A6010010F001001056010010BE0E0010A3
:10422000F2030010570100103E140010F4050010B6
:10423000580100109A010010D2010010BE010010B8
:10424000B0010010FFA3000080FF0000C03F03503A
:1042500029660000FFA50000FFFFFF00FFF716FC26
:104260000090FFF77AFA00BFF94800780028FBD1E8
:104270002046FFF716FC0090FFF76FFA00BFF448E6
:1042800000780028FBD1F348C06B02214840F14977
:10429000C86387E00120C005844233D12046FFF780
:1042A000EDFB0090FFF759FA00BFE94800780028BD
:1042B000FBD12046FFF7EAFB0090FFF74EFA00BF64
:1042C000E34800780028FBD12046FFF7EAFB009086
:1042D000FFF743FA00BFDE4800780028FBD1DE4834
:1042E0000460DC48C06B02214840DA49C863FFF72C
:1042F000E3FBFF2804D127460020D84908704EE090
:1043000026464CE01420FFF72BF9E0B2D2490968A9
:10431000C9B2884205D02046FFF7B0FB0090FFF7F6
:104320001CFA00BFCA4800780028FBD1FF20000219
:104330002040C9490968FF2212021140884205D075
:104340002046FFF7A3FB0090FFF707FA00BFC04825
:1043500000780028FBD1FF2000042040BE490968F6
:10436000FF2212041140884205D02046FFF799FB36
:104370000090FFF7F2F900BFB54800780028FBD1A4
:10438000B448C06B02214840B249C863B2480460D7
:10439000FFF792FBFF2801D1274600E02646BE42E8
:1043A00000D01DE700BFAE48844209D1A120000221
:1043B000FFF7D3F900BFA64800780028FBD137E00B
:1043C000A8480078FFF799FBA64801786846017174
:1043D0002002010E684641712004010E6846817179
:1043E000C471042000909F48007880009E4A811884
:1043F00001AB0022072002F01CF80A20FFF7B0F8FA
:1044000098480078401C97490870084600783F2873
:1044100004DDA1200002FFF7A0F909E08D48C06B80
:10442000022148408B49C8636D1E002D00D0D4E6A0
:1044300000BF05B0F0BDF0B585B0CA208B49C8708B
:10444000084640791621484389494018807B8007F7
:10445000800F012804D002280CD003281ED113E0BD
:104460007B4C7E4F8348019083480290834D844863
:10447000009015E0834C84480190844F844802905A
:10448000844D854800900BE0844C85480190854F11
:1044900085480290854D8648009001E005B0F0BD4A
:1044A00000BFA3200002A84700BF20780028FCD14D
:1044B00003994902FF31993188B2A84700BF20789B
:1044C0000028FCD100988047387800287ED16420ED
:1044D000FFF746F85F48C06B022148405D49C8635A
:1044E000A3200002A84700BF20780028FCD10326A3
:1044F0000AE06420FFF734F85648C06B02214840B8
:104500005449C863701EC6B2002EF2D10399490205
:10451000FF31993188B2A84700BF20780028FCD12C
:10452000009880473878002877D107260AE0642071
:10453000FFF716F84748C06B022148404549C86359
:10454000701EC6B2002EF2D1A3200002A84700BF01
:1045500020780028FCD103260AE06420FFF700F849
:104560003C48C06B022148403A49C863701EC6B23D
:10457000002EF2D103994902FF31993188B2A84740
:1045800000BF20780028FCD10098804738780028A8
:1045900043D14848A84700BF20780028FCD14648AE
:1045A000A84700BF20780028FCD1A3200002A8471C
:1045B00000BF20780028FCD13F48C01EA84700BF9C
:1045C00020780028FCD13B48FA3000E025E0A847DD
:1045D0002048C06B022148401E49C86300BF2078B4
:1045E0000028FCD13448001FA84700BF20780028CD
:1045F000FCD1A3200002A84700BF20780028FCD1EE
:104600002D48401EA84700BF20780028FCD1114843
:10461000C06B022148400F49C86300BF3EE708B5A0
:1046200000F0FDFA01F0BFF800F0FBFB2348FFF7B4
:1046300022FA2348006802210843214908600548FE
:10464000C06B082108430349C863FEF757F9B0E27D
:104650009A010010C03F0350B401001098010010EF
:10466000FFFFFF00B001001029660000C008001025
:104670003E0900109B010010990100105B370000FB
:10468000FF360000D2010010D3010010D00100104D
:10469000D10100103957000017580000BE0100106A
:1046A000BF010010BC010010BD010010B54D00009D
:1046B000934E000004A300002EFF0000F001001044
:1046C0000080035030BFFEF7C0F8FE480078002895
:1046D00030D00020FC490880FC480078401EC1B260
:1046E000FB48FFF75FFAF9490978491EF84A515C1F
:1046F000884217D1002405E0F548005DF5490855CA
:10470000601CC4B2F14800788442F5DBF2480078BE
:10471000002802D1FDF77CFF04E0FFF755FA0020E6
:10472000EE490860E7480078401EE649087000201E
:10473000EB490860EB48008810210840002832D07F
:10474000E948006996280ED9E848C06B02218843E1
:10475000E649C86300BFE648E649C860BFF3408F3A
:1047600000BF00BFFEE7E448008810210840002891
:1047700019D0FA20D7490870EC204870DF4800783B
:104780008870FE20C8700120087104204871002044
:1047900088710721CF48FFF705FACE49C871082173
:1047A000CC48FEF77FFED6480078012823D1D548B3
:1047B000007800281FD1FEF7A2FFFA20C549087033
:1047C000EC204870CD48007888706E20C8700320B7
:1047D0000871CD4800784871002088710721BD48D4
:1047E000FFF7E0F9BB49C8710020C54908700821EE
:1047F000B848FEF757FEC5480078012823D1C448C1
:10480000007800281FD101F006F8FA20B14908709D
:10481000EC204870B948007888706E20C87003207A
:104820000871BC4800784871002088710721A948A8
:10483000FFF7B8F9A749C8710020B44908700821EA
:10484000A448FEF72FFEB4480078012823D1B348CE
:10485000007800281FD100F01CFBFA209D49087049
:10486000EC204870A548007888706E20C87003203E
:104870000871A84800784871002088710721954880
:10488000FFF790F99349C8710020A34908700821E7
:104890009048FEF707FEA2480078002817D0A148EC
:1048A0000078002813D19748007800280FD19E493E
:1048B0009E48FFF7C3F8002804D09B480088FEF705
:1048C0004CFF04E000208049088095490870984812
:1048D0000078002817D093480078002813D18C481E
:1048E000007800280FD190499248FFF7A7F80028D8
:1048F00004D08D48008800F01FFF04E000208E499E
:1049000008808B4908708D480078002817D08548AA
:104910000078002813D18148007800280FD18249FF
:104920008748FFF78BF8002804D07F48008800F004
:1049300041FA04E0002083490880804908708248D9
:10494000007800285AD00120804B00228049009036
:10495000072001F0C1FD002806D17C48007801281D
:1049600002D00020794908706E480078002804D0F1
:104970006C480078401E6B49087076480078002823
:1049800009D0002073490870734800780221084359
:104990007149087005E070480078022188436E492B
:1049A00008706E480078002809D000206B49087014
:1049B00069480078042108436749087005E06648A3
:1049C000007804218843644908706548007800280D
:1049D00009D00020624908705F4800780821084328
:1049E0005D49087005E05C480078082188435A4911
:1049F0000870FFF77DFA0020534908705948006895
:104A0000002808D047480078002801D1FFF766F950
:104A100000205449086054480078012850DD33488C
:104A2000C56B04210D405148007880210840690180
:104A3000884245D12D48C06B04210840002828D168
:104A40004B480078042823D00720214B00224949F5
:104A5000009001F041FD07211D48FFF7A3F81C4914
:104A6000C871012017490870002405E01848005D4E
:104A700018490855601CC4B2082CF7DB08211548FA
:104A8000FEF710FD3948007880210840374908704A
:104A900086E039480078002813D007200C4B00220C
:104AA00034490831009001F017FD07210848FFF74D
:104AB00079F80749C871012002490870002463E0B1
:104AC00077E06DE0900100101200001092010010DC
:104AD000D4080010C0080010A7010010AC0100109D
:104AE0008C010010E4010010541A0010C03F035064
:104AF0000400FA0500ED00E0E001001024000010C1
:104B00009B0100109A01001098010010D3010010C1
:104B1000D2010010D0010010BF010010BE01001032
:104B2000560100101000001054010010F001001098
:104B300057010010F203001014000010580100107B
:104B4000F40500101600001020000010A60100104F
:104B500059720000A8010010AB010010A90100105B
:104B6000AA0100101C0000102300001022000010F9
:104B70000E0000101A0F00000F0000104448005DE6
:104B800044490855601CC4B2082CF7DB0821414891
:104B9000FEF788FC40480078802108403E490870B4
:104BA00000203E4908703C480078802108403A497E
:104BB000087087E570B5002124E08800384D2B5A35
:104BC000481C80002C5AE21AFF202D30824208D364
:104BD0003448824205D873208D00314EAD19E870FB
:104BE0000FE0A7208000824209D37D20C0008242CE
:104BF00005D86C208D002A4EAD19E87001E0012027
:104C000070BD491C26484030007A401E8842D4D8E6
:104C100078208D00224EAD19E8700020F0E710B525
:104C20000020214908702149088021490870214944
:104C30000870214908702149087021490860002145
:104C40001748403001721F48C06B402108431D497E
:104C5000C8631D480068402108431B490860D220F2
:104C60001A4908621A491B48006801F08DFD401E70
:104C70001949C860122001218140184A116000BF03
:104C800000BF01218140164A116000BF10BD000025
:104C9000D4080010C00800102200001023000010EB
:104CA000F408001026020000940100109601001084
:104CB00098010010990100109A0100109B0100104A
:104CC0009C010010C03F0250008002508040044010
:104CD00040420F00040000100040014080E200E06C
:104CE00000E100E0F8B500230021002417E0A00057
:104CF000F64FC019807800901120471A0098B840EC
:104D00000343491CA000F14FC019C0786C2805D19D
:104D10001120471A0098B8400343491C641C12290B
:104D200005D2EA484030007A401CA042DFD800217A
:104D30000CE007258D4018462840002803D018466F
:104D40002840A84201D10120F8BD491C1029F0D308
:104D50000022002112E05004020C1020401A1F46CD
:104D6000C740BE07B60F002E01D0032E01D101208F
:104D7000EAE7012E01D101200243891C1229EAD35E
:104D8000FF2001301040002801D10120DCE7D04F86
:104D90003A700020D8E710B500F022FC002801D0BE
:104DA000002010BDFFF79EFF002801D00020F8E78B
:104DB0000120F6E7F1B5002601270098FEF735FC43
:104DC00004460098FEF748FC05460098FEF77BFC79
:104DD000002800D0022721E000BFBE48007800284C
:104DE000FBD100BF0120BB490870BB480570BB4820
:104DF0000460BB48C06B40084000B949C86300204C
:104E0000B8498860FF20A2308861002088620320B2
:104E100048610120486000BF701CC6B2BE42DBDBA7
:104E2000F8BD10B50020B0490870B0490880A84905
:104E30000870AF490870A7490870A7490870A749CA
:104E400008600021A14840300172A548C06B0121D3
:104E50000843A349C863A748006801210843A5493E
:104E60000860D120A4494861A449A548006801F020
:104E70008BFC401E9B49C860112001218140A14A42
:104E8000116000BF00BF012181409F4A116000BF37
:104E900010BD10B58D484030007A002803D10120A4
:104EA0009349087016E089484030007A012803D100
:104EB00003208F4908700DE0FFF76DFF002806D032
:104EC00000208549087002208949087002E003200B
:104ED0008749087010BD10B582480068C1B2C80784
:104EE000C00F002878D001207E4A106079480078F1
:104EF00001280CD17A48C06B01221043784AD06354
:104F00000020824A10700220724A1070DDE0714861
:104F10000078022824D171480068C00FC00700281B
:104F200006D06F48C06B012210436D4AD06305E084
:104F30006B48C06B40084000694AD063674800680E
:104F40004000664A106071480078401C6F4A10703B
:104F5000104600782028D9D103205E4A1070B4E0B2
:104F60005C48007803281ED15D48C06B01221043C5
:104F70005B4AD0635848007800280DD06448594AED
:104F800090610020524A1070002250484030027256
:104F90000420504A107098E05E48524A9061052003
:104FA0004C4A107091E04B480078042809D15848C9
:104FB000D0304C4A9061072090620620454A10701C
:104FC00083E044480078062807D15348454A906159
:104FD0000720404A107078E028E03E480078072813
:104FE0000AD102203F4A50600020906210201060D9
:104FF0000020384A107068E03648007808280AD146
:105000004648384A906100209062102010600520C8
:10501000304A107059E02F480078052855D10220F9
:10502000304A506000202B4A10704EE0102008409B
:1050300000284AD0254A4032107A1022294B1A60A3
:10504000244A1278062A02D100229A622FE0214ACD
:105050001278072A18D1324A224B9A6100229A60AC
:1050600001221A602F4A1268002A01D1012200E0B1
:1050700000228300154C1B199A7000228300E25213
:105080000822144B1A7012E0124A1278082A0ED124
:10509000244A1268002A01D1012200E00022830084
:1050A0000A4C1B199A700F4AD26A8300E252074ACF
:1050B0004032127A112A07DA044A4032127A521C1C
:1050C000D3B2024A4032137200BF10BDBE190010A5
:1050D000BC010010BE010010BF010010C001001093
:1050E000C03F025000000140B8010010BA0100109A
:1050F000BD010010008002500040044040420F00FB
:105100000400001080E200E000E100E0C4010010B3
:10511000840600003D2F0000B22900007725000022
:105120006B2700000020025010B5A9200002FFF7F5
:1051300041FE00BFF94800780028FBD1FFF7A9FE27
:10514000F7480078032801D1FF2010BDF44800780B
:10515000022802D1F3480078F7E7F14800780128E7
:1051600001D10020F1E7EF480078EEE710B50446E2
:10517000BB200002FFF71EFE00BFE84800780028B1
:10518000FBD13220FEF7ECF9FFF783FEE54800780B
:1051900000283FD00020E34908706100B7221202C6
:1051A0001143481CFFF706FE00BFDC4800780028CA
:1051B000FBD11420FEF7D4F9BB200002FFF7FAFD63
:1051C00000BFD64800780028FBD11420FEF7C8F9AC
:1051D000FFF75FFE6000401CD2490978884219D170
:1051E0000020D0490870AB200002FFF7E3FD00BFAC
:1051F000CA4800780028FBD11420FEF7B1F96102FB
:10520000FF31013188B2FFF7D5FD00BFC3480078F8
:105210000028FBD110BDF0B585B00020C249087050
:1052200000BFC248FFF7C6FD00BF00BFBB48007803
:105230000028FBD1BE48FFF7BDFD00BFB74800788E
:105240000028FBD10A20FEF78BF9A5200002FFF70A
:10525000B1FD00BFB14800780028FBD100BFB548C0
:10526000C06B02214840B349C863002566E00420B2
:105270000090A800B04A811801AB0022072001F07D
:105280002BF9002859D16946487900048979090227
:1052900008436946C979084304466946087980117C
:1052A00002284AD1C979B522120211430846FFF7F4
:1052B00081FD00BF994800780028FBD069468979B4
:1052C000B322120211430846FFF774FD00BF934852
:1052D00000780028FBD069464979B12212021143B7
:1052E0000846FFF767FD00BF8C4800780028FBD018
:1052F0009048C06B02210840022805D18D48C06B40
:1053000088438C49C86305E08A48C06B0221084382
:105310008849C863FFF708FFFF280ED16846007967
:105320008006800E8049087008460078FFF71EFF4F
:105330007D480078401C7C4908706D1C402D96D338
:105340007C48C06B022148407A49C863FF20F53091
:10535000FEF706F97748C06B022148407549C863DB
:10536000A1200002FFF726FDFF20F530FEF7F8F838
:105370007048C06B022148406E49C8636F48FFF710
:1053800019FD00BF654800780028FBD1A720000266
:10539000FFF710FD00BF614800780028FBD1654889
:1053A000C06B022148406349C863402512E10026D2
:1053B000634FCAE0F019401C4408B44201D0BC421B
:1053C00027D12046FEF75AFB0090FFF7F3FC00BF01
:1053D000524800780028FBD12046FEF757FB00908A
:1053E000FFF7E8FC00BF4D4800780028FBD12046BD
:1053F000FEF757FB0090FFF7DDFC00BF4748007841
:105400000028FBD14B48C06B022148404949C86382
:105410009EE00120C005844233D12046FEF72EFBDA
:105420000090FFF7C7FC00BF3C4800780028FBD184
:105430002046FEF72BFB0090FFF7BCFC00BF37486F
:1054400000780028FBD12046FEF72BFB0090FFF7E9
:10545000B1FC00BF314800780028FBD13948046016
:105460003448C06B022148403249C863FFF75CFEF4
:10547000FF2804D1274600202A49087065E0264607
:1054800063E01420FEF76CF8E0B22E490968C9B257
:10549000884205D02046FEF7F1FA0090FFF78AFC1B
:1054A00000BF1E4800780028FBD1FF2000022040EA
:1054B00024490968FF2212021140884205D0204683
:1054C000FEF7E4FA0090FFF775FC00BF1348007880
:1054D0000028FBD1FF20000420401A490968FF2260
:1054E00012041140884205D02046FEF7DAFA0090F7
:1054F000FFF760FC00BF094800780028FBD10D4889
:10550000C06B022148400B49C8630E480460FFF796
:105510000BFEFF2818D1274617E00000BE0100103F
:10552000BD010010BC010010B0010010FFA300007D
:1055300080FF0000C03F035029680000FFA5000065
:10554000FFFFFF00C80100102646BE4200D031E731
:1055500000BF3E48844209D1A1200002FFF72AFC87
:1055600000BF3B4800780028FBD136E0394800787E
:10557000FFF7FCFD37480078802108436946087131
:105580002002010E684641712004010E68468171B7
:10559000C471042000902F48007880002E4A8118A2
:1055A00001AB0022072000F044FF2A480078401C8D
:1055B000284908702948C06B022148402749C86320
:1055C000244800783F2804DDA1200002FFF7F2FB09
:1055D00003E06D1E002D00D0E9E600BF05B0F0BD70
:1055E00070B5002124E088001D4D2B5A481C800016
:1055F0002C5AE21AFF202D30824208D319488242E9
:1056000005D873208D00164EAD19E8700FE0A72065
:105610008000824209D37D20C000824205D86C20E0
:105620008D000F4EAD19E87001E0012070BD491CDE
:105630000B484030007A401E8842D4D878208D0034
:10564000074EAD19E8700020F0E70000FFFFFF00F3
:10565000BE010010B001001029680000C03F0350D7
:10566000BE19001026020000F8B500230021002416
:1056700017E0A000F64FC019807800901120471A5B
:105680000098B8400343491CA000F14FC019C078EE
:105690006C2805D11120471A0098B8400343491CD3
:1056A000641C122905D2EA484030007A401CA0420E
:1056B000DFD800210CE007258D401846284000283F
:1056C00003D018462840A84201D10120F8BD491C4A
:1056D0001029F0D30022002112E05004020C102007
:1056E000401A1F46C740BE07B60F002E01D0032E3A
:1056F00001D10120EAE7012E01D101200243891CDA
:105700001229EAD3FF2001301040002801D10120E6
:10571000DCE7D04F3A700020D8E710B500F018FC55
:10572000002801D0002010BDFFF79EFF002801D007
:105730000020F8E70120F6E7F1B5002601270098E0
:10574000FDF773FF04460098FDF786FF05460098B5
:10575000FDF7B9FF002800D0022721E000BFBE48B6
:1057600000780028FBD100BF0120BB490870BB486E
:105770000570BB480460BB48C06B80218843B949B1
:10578000C8630020B8498860FF20A23088610020EB
:105790008862032048610120486000BF701CC6B2C7
:1057A000BE42DBDBF8BD10B50020B0490870B0493F
:1057B0000880A8490870AF490870A7490870A74930
:1057C0000870A74908600021A14840300172A5482F
:1057D000C06B80210843A349C863A74800688021A3
:1057E0000843A5490860D220A449C861A449A54836
:1057F000006800F0C9FF401E9B49C86010200121CD
:105800008140A14A116000BF00BF012181409F4A31
:10581000116000BF10BD10B58D484030007A0028DF
:1058200003D101209349087016E089484030007A7E
:10583000012803D103208F4908700DE0FFF76DFFA9
:10584000002806D000208549087002208949087088
:1058500002E003208749087010BD10B58248006837
:10586000C1B2C807C00F002878D001207E4A10605E
:105870007948007801280CD17A48C06B8022104307
:10588000784AD0630020824A10700220724A107059
:10589000DDE071480078022824D171480068C00F0B
:1058A000C007002806D06F48C06B802210436D4AA5
:1058B000D06305E06B48C06B80229043694AD06397
:1058C000674800684000664A106071480078401CD4
:1058D0006F4A1070104600782028D9D103205E4A04
:1058E0001070B4E05C48007803281ED15D48C06B9E
:1058F000802210435B4AD0635848007800280DD0BE
:105900006448594A90610020524A10700022504861
:10591000403002720420504A107098E05E48524AAB
:10592000906105204C4A107091E04B4800780428A3
:1059300009D15848D0304C4A906107209062062027
:10594000454A107083E044480078062807D1534840
:10595000454A90610720404A107078E028E03E48B0
:10596000007807280AD102203F4A50600020906248
:10597000102010600020384A107068E03648007827
:1059800008280AD14648384A9061002090621020C9
:1059900010600520304A107059E02F480078052823
:1059A00055D10220304A506000202B4A10704EE042
:1059B0001020084000284AD0254A4032107A102290
:1059C000294B1A60244A1278062A02D100229A62D0
:1059D0002FE0214A1278072A18D1324A224B9A61C5
:1059E00000229A6001221A602F4A1268002A01D10F
:1059F000012200E000228300154C1B199A7000223E
:105A00008300E2520822144B1A7012E0124A1278F4
:105A1000082A0ED1244A1268002A01D1012200E08E
:105A2000002283000A4C1B199A700F4AD26A830025
:105A3000E252074A4032127A112A07DA044A403207
:105A4000127A521CD3B2024A4032137200BF10BD08
:105A5000081A0010D0010010D2010010D30100106C
:105A6000D4010010C03F025000C00040CC01001023
:105A7000CE010010D101001000800250004004400F
:105A800040420F000400001080E200E000E100E06E
:105A9000D8010010840600003D2F0000B22900004C
:105AA000772500006B2700000004005010B5A920E6
:105AB0000002FFF741FE00BFFD4800780028FBD13F
:105AC000FFF7A9FEFB480078032801D1FF2010BD95
:105AD000F8480078022802D1F7480078F7E7F5483F
